:020000022000DC
:1060000000000120756302005D6302005F6302000F
:106010006163020063630200656302000000000028
:1060200000000000000000000000000067630200A4
:1060300069630200000000006B6302006D630200F0
:10604000C18702006F630200D98C0200A99602008A
:106050006F6302006F630200558B02006F630200E2
:10606000299D02006F6302006F6302006F630200EC
:106070006F630200F98D02006F6302006F6302001C
:106080006F630200BD6602006F6302006F6302006F
:10609000596702006F6302008DEE02006F63020019
:1060A0006F6302006F6302006F6302006F630200A0
:1060B0006F6302006F630200000000000000000038
:1060C0006F6302006F6302006F6302006F63020080
:1060D0006F6302006F6302006F6302000000000044
:1060E00000000000000000000000000000000000B0
:1060F00000000000000000000000000000000000A0
:10610000000000000000000000000000000000008F
:10611000000000000000000000000000000000007F
:10612000000000000000000000000000000000006F
:10613000000000000000000000000000000000005F
:10614000000000000000000000000000000000004F
:10615000000000000000000000000000000000003F
:10616000000000000000000000000000000000002F
:10617000000000000000000000000000000000001F
:10618000000000000000000000000000000000000F
:1061900000000000000000000000000000000000FF
:1061A00000000000000000000000000000000000EF
:1061B00000000000000000000000000000000000DF
:1061C00000000000000000000000000000000000CF
:1061D00000000000000000000000000000000000BF
:1061E00000000000000000000000000000000000AF
:1061F000000000000000000000000000000000009F
:10620000354936480A1A02D0072291438D4634494F
:1062100034480A1A06D00722914381F309880222E2
:1062200082F3148830483149314A00F044F831484B
:106230003149324A00F03FF831483249324A00F0E1
:106240003AF832483249334A00F035F83248334997
:10625000334A00F030F833483349344A00F02BF821
:1062600033483449344A00F026F83448344900228F
:1062700000F02CF833483449002200F027F8334866
:106280003349091A082902DB002202604160314AC1
:1062900090471F481F49884205D00268043003B464
:1062A000904703BCF7E700208646EC46002000211B
:1062B000294A9047FEE7884207D0521A05D0037852
:1062C00001300B700131013AF9D17047884202D098
:1062D00002700130FAE770470000012000E0002062
:1062E0000000012000000120DC390300A42B002065
:1062F000EC2B0020D4630200D4630200ECF902000E
:10630000DC390300A42B0020A42B0020D0FB0200CA
:10631000D0FB0200D4FB0200D0FB0200D0FB020045
:10632000D0FB0200D4FB0200D4FB0200DC390300E6
:10633000243A0300EC2B0020EC2B0020EC2B002057
:1063400038420020384200203842002038420020E5
:10635000386200209D630200EDB40200FEE7FEE714
:10636000FEE7FEE7FEE7FEE7FEE7FEE7FEE7FEE705
:10637000704700BF1048804710484FF0070188431E
:1063800085460F4880470F48016841F4700101605D
:10639000BFF34F8FBFF36F8FFFF732BF0A480B4930
:1063A0000B4A884207D0521A05D0037801300B708F
:1063B0000131013AF9D170477163020000000120F8
:1063C00021B9020088ED00E0BCFB0200902B002008
:0463D000A42B0020DA
:1063D400FEE70000032813D8012A0BD1012908D1B4
:1063E40000F10E02D2B200EB40000C4B1A54002014
:1063F400704700220129F6D04BB24BB1022901D0DB
:1064040007207047054B00EB400018444270EEE74C
:10641400024900EB400008448270E8E7EC2B0020BE
:1064240008B5012202210020FFF7D4FF08B1072894
:1064340010D1072202210120FFF7CCFF08B1072861
:1064440008D100210A220846FFF7C4FF10B107282B
:1064540008BF002008BD00000388102B10B502D02F
:10646400112B1ED010BD1A4C2168B1B90122084667
:10647400FFF7B0FF08B1072824D107220221012029
:10648400FFF7A8FF08B107281CD10422022100202D
:10649400FFF7A0FF08B1072814D123680133236054
:1064A400E0E70B4A1368013B1360002BDAD1FFF7D6
:1064B400B7FF0028D6D0074B1B68002BD2D0BDE80D
:1064C40010401847034B1B68002BE6D09847E4E7BD
:1064D400FC2B0020F82B002004F012BF00210846FA
:1064E40004F0C2BE10F1360F0AD058B148F211526E
:1064F40048F2165310F1380F0CBF10461846704777
:1065040048F21450704708B50846114602F0A6F840
:10651400002008BD37B50446002002F021F80546E6
:1065240078B90434204604F0BDFD00952B462A4674
:106534000549204604F02EFE03B0BDE83040FFF7C5
:10654400D1BF03B030BD00BF0B65020008B50430F5
:1065540004F0ADFD02F030F8002008BD1FB50021A5
:10656400039001AA44F20100CDE9011100F004F8FE
:1065740005B05DF804FB000010B572B603F0F2FF3D
:1065840003F040FE0028FBD1104B114C1149E41AD2
:10659400E408240444F0010003F09EFF0E4B1B6842
:1065A400DB0700D500BE0D4944F0020003F094FF60
:1065B400BFF34F8F0A490B4BCA6802F4E0621343DE
:1065C400CB60BFF34F8F00BFFDE700BFACFA020002
:1065D400ECFA0200D4FB0200F0ED00E0E0FB020064
:1065E40000ED00E00400FA05094A5378917801337C
:1065F400DBB2994208BF0023117899421FBF037090
:106604005078182303FB002014BF04300020704787
:10661400002C002073B5054600240DF107000E463A
:106624008DF8074000F050FA0DF10600FFF7DCFF8B
:1066340090B10670094B9DF8062045605A709DF88C
:10664400070000F065FA24B9054B4FF48012C3F833
:106654000021204602B070BD0424F0E7002C002085
:1066640000E100E0024B4FF43C6043F001031847A3
:10667400F0FB020038B50C4B0C4C4FF40032C3F85D
:10668400802001254FF48033C4F84833C4F808331C
:106694006560FFF7E7FF064BA56000241C60FFF769
:1066A400E1FF044B1C7038BD00E100E00010014024
:1066B4001C2D00200D2D0020F8B51F4B1F491B6811
:1066C4000025C1F84051C1F84451C1F84851C1F8FE
:1066D4004C51C1F80051C1F804514BB3D1F80445F1
:1066E40017490968641A24F07F442F461A68A242A5
:1066F40009D8A41A15441A7CDE691AB11F74D3E9A7
:1067040005209047AEB90F4A0F4B11781B788B4286
:1067140005D10133DBB2022B08BF002313701278BA
:106724000A4B43F822500A4B4FF48012C3F800215D
:10673400F8BD3346DAE700BF202D002000100140E9
:106744001C2D0020192D0020182D0020102D0020B4
:1067540000E100E02DE9F04FA04AA149137809783F
:10676400A04D994285B03CD00133DBB2022B08BF67
:10677400002313709C4912789C4B0F6853F8220035
:106784003B1823F07F4300220B602B681646144607
:10679400944613B942B12B6006E0196881420ED9C0
:1067A40002B12B60091A19604FF001082B68DFF859
:1067B40044A201930027BEB9DFF840B266E0401A54
:1067C4000C44D968C3F800C0D3F81CE031B13A19BD
:1067D40022F07F42C3E90121DE611E460122734695
:1067E400D7E70026B046E1E73446F6697E4A636897
:1067F4001268DFF80CC2A068991A21F07F41614544
:1068040000F2A58001442160012222742A68002339
:10681400C4E90133E361002A40F0A2802C60CAE796
:106824005A1C9BF80210D2B291428BF8002004BF8C
:1068340000228BF80020182202FB03B31A799C680B
:10684400022A1CD0032A12D0012A1FD1207CE8B9C5
:10685400D3E90312A2605A69E2609A69644BA261A7
:106864001B78002B0CBF0B4603466360BEE7002277
:106874002B681146002B66D142B12B6006E02968D3
:106884000A468946002A59D1002323749BF8003014
:106894009BF801209A42C3D12B682FB9019A9A42DE
:1068A40002D1B8F1000F43D0002B73D0D3F800A06D
:1068B400504D4D4BD5F804751C68DFF848813E1BDC
:1068C40098F8003026F07F4603369BB94FF48033A6
:1068D400C5F84433C5F80433474B4FF400324FF046
:1068E4000109C3F880211A60C5F80090FFF7BAFEC9
:1068F40088F80090B2452CBF5444A41924F07F4476
:10690400C5F84045D5F80435DB1B23F07F43E41B71
:10691400033324F07F44A3420AD9D5F80435C5F8DB
:106924004035FFF79FFE344B4FF40032C3F800218B
:106934002F4B00221A7005B0BDE8F08F94422CD082
:106944009146D2699EE719740122DB6992E7D31A52
:1069540023F07F43834234BFC31A0023236053E7E9
:1069640021681368994213D8591A1160E26155E7F6
:10697400091AD8691A4638B1034618688842F7D309
:10698400401A1860184613462160E061DC6112E782
:106994001346F2E7FFF76EFECAE74C4511D1CB6907
:1069A4002B6073B9DFF840E00120CDE90212CAF888
:1069B4000800CEF800300E4B1870FFF753FEDDE9E7
:1069C40002121368D269C9F81C2012B1106803447A
:1069D40013602B68994218BF012755E7182D002032
:1069E400192D0020202D00201C2D0020102D00200A
:1069F4000C2D00200010014000E100E0002C0020DC
:106A0400FEFF7F000D2D00202DE9F7431E4FBB78BC
:106A140005460E469046A3B398B304292FD943697B
:106A24007BB3437C0024012B0DF107000CBF894686
:106A3400A1468DF8074000F047F80DF10600FFF776
:106A4400D3FDD0B101230370104B4560D3F8043556
:106A5400C0E90498C0E902369DF806307B709DF8C1
:106A6400070000F055F824B9094B4FF48012C3F81D
:106A74000021204603B0BDE8F0830424EFE7072497
:106A8400F7E70824F5E700BF002C002000100140C0
:106A940000E100E0064A92783AB130B1426922B18D
:106AA400002202740221FFF7B5BD0820704700BF21
:106AB400002C0020014BD3F804057047001001405E
:106AC400401A20F07F40704770B5EFF3108672B61D
:106AD4000C4A946801239CB993600B4B0B4DD3F87B
:106AE400801029401160C3F88050D3F8841051609D
:106AF4004FF0FF32C3F88420047006B962B670BD4B
:106B04000370FAE7242D002000E100E0FC06FFBD3D
:106B1400084B9A6810B55AB150B9EFF3108172B6A8
:106B2400054A1C6814605C685460986001B962B6D8
:106B340010BD00BF242D002000E100E070B5064D1B
:106B44000646002455F8043B0BB1304698470134FF
:106B5400042CF7D170BD00BF3C2D0020033080B25F
:106B640040F2FD33984230B51FD8124B1A783AB927
:106B74001C895D892C440444A4B2B4F5806F0AD303
:106B84001A7DA2B99A8BDC8B2244024492B2B2F5EC
:106B9400806F0CD201220A801446142202FB0433B3
:106BA4005A8910445881002030BD0920FCE7072091
:106BB400FAE700BF702D00200B4A0C4B51881420BB
:106BC40000FB0131CB6833B90420496810700122FD
:106BD400074801F0C9B805230649137002238B80C6
:106BE400012200230968F3E7542D0020702D0020B2
:106BF400902B0020AC2D002007B5002305490093FD
:106C0400054A09680548082301F018F803B05DF83F
:106C140004FB00BFAC2D002004FC0200902B0020DC
:106C240007B50023009301460823034A034801F0F3
:106C340005F803B05DF804FBFCFB0200902B002078
:106C440013B500230C46009301460423074A084861
:106C540000F0F4FF38B9074B142202FB043401237B
:106C6400237402B010BD0E20FBE700BFF8FB020046
:106C7400902B0020702D002037B50A480A4B42683B
:106C84009C88196853880325033305709BB2002040
:106C940000909B0001EB8401044800F0CFFF03B097
:106CA40030BD00BF542D0020AC2D0020902B0020BF
:106CB40010B50146044800F07EFC1C220446002165
:106CC40008F0EDFD204610BD982D002043880333C5
:106CD40000EB8303994209D382884FF6FF739A42EB
:106CE40006D00088B0FA80F040097047022070474F
:106CF40001207047154A142303FB002070B50B686C
:106D040044680D4604F58056ABB15C88033403EB4C
:106D14008404B4420DD2236801330AD0314620469C
:106D2400FFF7D4FF01280BD010F0FF0F05D0022885
:106D3400EFD1002003E00834EBE72C60012070BDA4
:106D44006388033304EB8304E3E700BF702D002062
:106D5400436873B504460D466BB3244AD1688B422D
:106D640029D31269934226D813F0030223D1204970
:106D74000089098988421ED12068996888421AD1FD
:106D84001C494868834203D900F5805083420ED3DE
:106D94008A6993420DD902F58052934209D20123A4
:106DA4002B800020B0FA80F0400902B070BD134679
:106DB400F6E70A20F6E700232B801E46019601A978
:106DC4002888FFF797FF30B92B8801339BB2012B3A
:106DD4002B80F3D9E9E7019B226899689142EED1AF
:106DE4006360034B1B892381DFE700BF902B0020E6
:106DF400542D0020702D00202DE9F8431C461C4B17
:106E04001B7806460F4615466BB372B36CB3DFF8B6
:106E140068804FF01409A388012B01D90A2020E0CF
:106E240009FB03F318F803302BB92146A088FFF7B8
:106E340061FF20B92060A3880133A380EBE72368B6
:106E44001EB1998832889142EFD11FB119883A88CE
:106E54009142EAD19A68C5E90023064B1B892B812C
:106E64000020BDE8F8830220FBE70520F9E700BF16
:106E74004C2D0020542D0020702D002008B5074B08
:106E8400191D5888FFF736FF18B1BDE80840FFF711
:106E9400F3BEBDE80840FFF78FBE00BF542D0020AD
:106EA4002DE9F04FA04FDFF8A49289B00646B8460A
:106EB4003B6823B949469D4800F0B7FB3860D8F8D1
:106EC400005029784B1E052B00F2FA80DFE813F0FE
:106ED40006005E005E00EE00EE005C0126B1944BFD
:106EE40000225A600124ECE02B79032B1DD8DFE843
:106EF40003F015022A358F490B78022B084619D066
:106F04000B7D022B4FF0010316D114225343C218F8
:106F14000020C8545068FFF783FE03E001232B715F
:106F2400FFF76AFE002800F0BC80814B00225A6003
:106F34000E24C6E00023E8E77D4A13700023536063
:106F440041F61D54BDE07C497C48002302222B718C
:106F54008A800122096800F007FFE3E7764C0026E7
:106F64002E712068734DFFF75BFE754BD4F800C09B
:106F74005A8814235343EA18EE5451682160A188B7
:106F8400C2F804C011810222A280CBE7B5F814A094
:106F9400AA7DDFF8A0B1AEB1022AEB8806D914218C
:106FA40001FB0AB1DA1C088902440A81142202FB9B
:106FB4000ABAC3F57F43BAF80A20FD331344AAF88A
:106FC4000A308FE7142303FB0AB318895C6804EBC7
:106FD4008004062A68D8DFE802F0274D35431D599E
:106FE400040041F61D54AA7DEB88022A06D9142117
:106FF40001FB0AB1DA1C088902440A81142202FB4B
:107004000ABAC3F57F43BAF80A20FD331344AAF839
:107014000A3056E04B484C4900234360AB69036097
:10702400FFF796FE002871D00223AB75002300936E
:107034000423EA182146414800F000FE002830D01D
:107044000E24D0E72B69002B14BF03230123AB7557
:107054000023009305F10C02042304F10801EAE77C
:107064000123AB750022EB8800929B002A6904F18E
:107074000C01E0E703290CBF05230623AB750023AD
:107084000093042305F10802E118D4E70623AB7545
:107094002D4B19882B4B5868FFF7D2FD0446002866
:1070A400A1D109B0BDE8F08F0F249CE7002E7FF436
:1070B40019AF2B79012B4BD0E3B1022B3FF440AF36
:1070C4000F241422002103A808F0E9FB41F61D5304
:1070D4009C4208BF0024D8F8003004941A78023A7D
:1070E400042A00F20581DFE812F0E600F20015013F
:1070F4001D01240102232B710DF10A01EB68039396
:1071040003A8CDE90466FFF723FE08B90A24D8E7EB
:107114000498BDF80A108388EB8003882B81FFF75D
:107124008FFD044627E000BF6C2D0020982D002021
:107134004C2D0020702D0020AC2D0020902B002021
:10714400542D0020302D0020B42D0020642D00206B
:10715400DFF8FCA103AA53463146A81DFFF74CFEF5
:10716400044658B9BAF804100498FFF769FD0446B8
:107174000A2C3FF4E5AE002CA3D192E70822314655
:10718400504608F08CFBF3E7002E7FF4ABAE6B4B5C
:107194001A7BAAB11E731A78013A062A90D801A163
:1071A40051F822F04F7202007572020093720200CD
:1071B40099720200C57002009F720200B17202004F
:1071C4001A78072AE7D801A151F822F0F1710200D8
:1071D4009B7102009B710200177202002B72020065
:1071E4004B7202004B720200137202001A89544956
:1071F40001321A8100225A801A730A78B2FA82F292
:1072040052099A720A7DB2FA82F25209DA720122A2
:1072140007E04C4958688A884088033202448A80CF
:1072240002221A70B7E7464C5A884649142505FBD2
:1072340002420868546850608888108102228A805B
:107244000C600622EDE70722EBE79A7A32B9DA7A84
:107254008AB900221A705A805A6071E638490022AD
:107264009A72CA68002AF2D1097C0029EFD05A80A8
:10727400FFF704FE55E70022DA72314A116A002949
:10728400E7D192F82420002AE3D00122EFE7FFF7A8
:10729400F3FC46E7FFF790FC43E7294A5B88142197
:1072A40001FB03235868FFF7BBFC3AE700225A604E
:1072B400FFF7A2FC35E701228DF80C201A89ADF8FE
:1072C40018209A88DB68ADF81A20059310E0022292
:1072D4008DF80C201A89ADF818209A88ADF81A2078
:1072E400DA689B7D05929A1F534253418DF81C30F6
:1072F40003A8FFF723FC002649461348C8F800609A
:1073040000F0BEF90121114800F06DFA00287FF465
:10731400CFADC6E603228DF80C20DA88ADF818202C
:107324001A89CFE70422DB888DF80C20ADF81830D9
:10733400DEE705238DF80C30DAE700BF542D00207A
:10734400702D0020AC2D0020982D0020A82D0020A9
:10735400B82D00204068FFF7A3BD000008B5012147
:10736400044800F02AFA18B9BDE80840FFF798BDB0
:1073740008BD00BFA82D00202DE9F3419846354BE8
:107384001B7806460D46002B5BD000295BD009888C
:107394004FF6FF73994258D06B88002B55D06B6819
:1073A4009B0754D14AB92F890DF102013846FFF7E2
:1073B400D5FB30B102B0BDE8F08113885788ADF831
:1073C400023001A8FFF774FC044658B9BDF8023036
:1073D400214A142101FB032358890338C01B588117
:1073E4000820E7E700238375BDF8023083826B68C9
:1073F400036180F800800121184800F0E9F92B8826
:107404002381B8F1030F6B88A38004BF0423A37501
:107414004FF0000508BF3368E06008BFA361E78050
:10742400658101A90E4800F0F0F836B1E3683360D5
:107434000C4B75601B89B5723381FFF78FFF0020F9
:10744400B8E70220B6E70520B4E70420B2E703203A
:10745400B0E700BF4C2D0020702D0020682D0020C7
:10746400982D0020542D002073B50D460446C8B154
:10747400C1B10DF10601FFF76BFCA8B10B4BBDF8D0
:1074840006006668142202FB003001210C3000F073
:107494009FF963682E600C336B600123A372002094
:1074A40002B070BD0520FBE70A20F9E7702D00202B
:1074B40013B50446A8B10DF10601FFF749FC90B1DC
:1074C4000B4ABDF80630142101FB0323DA6862B1CC
:1074D400A27A52B1DA680020013ADA60A07202B0EE
:1074E40010BD0520FBE70A20F9E70620F7E700BFF7
:1074F400702D002002230022FFF73EBF18B10323A2
:107504000022FFF739BF052070470000104B1B789D
:1075140013B50446ABB14FF6FF73984213D001A8DC
:10752400FFF7C6FB88B10523037001230371C480F0
:1075340001A9084800F069F8FFF710FF002002B025
:1075440010BD0220FBE70420F9E70820F7E700BF9D
:107554004C2D0020982D002007B5ADF80600ADF89D
:1075640004100DF1060001A9FFF746FC03B05DF815
:1075740004FB07B51346ADF806000A4600200DF1DA
:107584000601FFF739FC03B05DF804FB07B51346A9
:10759400ADF806000A460DF106000021FFF72CFCA9
:1075A40003B05DF804FB20B119B103680B6000203F
:1075B40070470520704737B550E8013F9DB2C48934
:1075C40025448489A54228BF2D1B0489A54202BFF6
:1075D400BFF32F8F002207E0C5EA030540E80154FA
:1075E400002CE9D14FF001028DF803200193019B97
:1075F4009DF803200B6002F0FF0322B10B880068A2
:10760400184403B030BD1846FBE70A884B889A42F9
:1076140009D150E8012FC2EA024240E80123002BBD
:10762400F7D1012070470020704737B550E8023F7A
:107634001FFAA3F5C488A54202BFBFF32F8F00220F
:107644000DE0C48925448489A54228BF2D1BC3EAC3
:10765400054540E80254002CE8D14FF001028DF8B2
:1076640003200193019B9DF803200B6002F0FF03AC
:1076740022B14B880068184403B030BD1846FBE7BC
:107684000A884B889A4209D150E8022FC2EA224262
:1076940040E80223002BF7D10120704700207047F7
:1076A40001F01F024B090121914000EB830000F01F
:1076B40063B84B0910B501F01F040121A14000EB90
:1076C400830000F04EF8E04000F0010010BD01F02E
:1076D4001F0301229A404B0900EB8300D14300F0C1
:1076E40061B84B0901F01F0150F82300C84000F0B5
:1076F400010070472DE9F0474E1E760980460F467B
:107704000136002558F8254008EB8509E44394FA2E
:10771400A4F4B4FA84F44FEA451A202C06D10135B6
:10772400AE42EFD83C462046BDE8F0875444A74219
:10773400F5D921464046FFF7BCFF0028F3D0D9F81D
:107744000040E44394FAA4F4B4FA84F4E5E750E87E
:10775400002F0B4640E8003C9CF0000FF7D1104688
:10776400704750E8002F42EA010340E8003C9CF0D7
:10777400000FF6D11046704750E8003F43EA01027B
:1077840040E8002C9CF0000FF6D11046704750E8FA
:10779400002F02EA010340E8003C9CF0000FF6D100
:1077A4001046704750E8003F03EA010240E8002C0D
:1077B4009CF0000FF6D11046704750E8002F02EB02
:1077C400010340E8003C9CF0000FF6D110467047DE
:1077D40050E8003F03EB010240E8002C9CF0000F4E
:1077E400F6D11046704750E8003FA3EB010240E891
:1077F400002C9CF0000FF6D1104670470121FFF7D2
:10780400BBBF0021FFF7C3BF10B590B1D0E901237E
:1078140001689B1ADBB20A60013BDBB2FF2B0268F2
:1078240002D10020107110BD11684C1C14600B7043
:10783400F2E70E20F7E737B5054600240DF10700FF
:107844008DF80740FFF740F92A686B681168994280
:107854000ED9481E106011F8014CEB68298A01FB0F
:107864000434AB6811791B1ADBB2994238BF137127
:107874009DF80700FFF74CF9204603B030BD37B53B
:10788400054600230DF107000C468DF80730FFF77D
:107894001BF92A681368591C1160E968641A298A5B
:1078A400B4FBF1F41C709DF80700FFF731F903B045
:1078B40030BD826810B504462AB143690168006985
:1078C40098470023A36010BD0EB403B5039921B1FA
:1078D40004AB01AA019300F075F802B05DF804EB63
:1078E40003B070470A2938B504460D4602D10D216C
:1078F400FFF7F8FFA3682268591CA160D554D4E9A6
:1079040001329A4204D32046BDE83840FFF7D1BF84
:1079140038BD00002DE9F84F9946DDE90A431746C2
:10792400824688460A460126BA420FD24E4538BFDF
:107934004E4613F0010B01D164B900240125B9F1BD
:10794400010F1AD909F1FF397D43F8E7B2FBF7F2C9
:107954000136E9E79B070ED5B9F1000F0CBF3025BE
:107964002025A642EAD2013C29465046FFF7BAFF39
:10797400002CF6D1E1E72025F3E7B8FBF5F39F42AD
:10798400E2D9DFF83C90B8FBF5F3504619F8031040
:1079940005FB1388FFF7A6FFB5FBF7F3BD4207D23B
:1079A400BBF1000F02D00CB1A64203D3BDE8F88F9F
:1079B4001D46E8E720215046013CFFF793FFF2E71C
:1079C40015FC02002DE9F74F0546174688460029A5
:1079D40000F0318118F8011B49B92B7B002B00F012
:1079E4002A81284603B0BDE8F04FFFF762BF25297E
:1079F40040F0C080002698F800302D2B424608F154
:107A0400010823D0302B24D02B2B25D000242A2B63
:107A140002F1010123D13B681A1D1B683A601C4422
:107A24000A4613782E2B26D101324FF0000A104655
:107A340010F8011BA1F1300CBCF1090F1DD80A2369
:107A440003FB0A13A3F1300A0246F0E746F00106ED
:107A5400D1E746F00206CEE746F00406CBE711F87C
:107A6400013CA3F130000928DBD80A2202FB0434CC
:107A7400303C0A46CBE74FF0000A12F8011B01F034
:107A8400FB0068289046F8D069290ED04AD85829B6
:107A940064D006D825296DD098F80030002B99D1F0
:107AA4009BE7632962D06429F6D13A68D2F8009042
:107AB400111D89EAE9723960A2EBE9724FF0010BFA
:107AC400092A5BDCD34538BFD3462CB1B9F1000F8A
:107AD40001DB710700D5013CB20702D5BAF1000FF2
:107AE40004D0F30702D4002C4ED10024B9F1000FC6
:107AF40052DAC9F100092D212846FFF7F3FE06F0FA
:107B04000302022A05D1BAF1000F02D1002C47D199
:107B14000024CDE9004653460A2249462846FFF789
:107B2400F9FEB9E773294CD014D87029B4D13B6855
:107B34001A1D3A60302128461C68FFF7D3FE7821CD
:107B44002846FFF7CFFE00220823CDE90032214664
:107B54001022E3E775292BD078299DD139680A1DB5
:107B64003A60CDE900465346102228E03B681A1DCE
:107B740019783A602846FFF7B5FE8DE70A230BF122
:107B8400010BB2FBF3F29BE7A345AFD220212846B9
:107B9400013CFFF7A7FEA6E77007B0D52B21ABE7A2
:107BA400A345B6D230212846013CFFF79BFEADE742
:107BB4003968CDE900460A1D3A6053460A2209682D
:107BC400ACE73B681A1D3A60F107D3F8009020D463
:107BD400B9F1000F25D0484607F0B6FE0646B44278
:107BE40000D9C4B909F1FF3920E028460136FFF76E
:107BF40079FE19F806100029F7D1A642BFF44CAF5C
:107C0400002C3FF449AF20212846013CFFF76AFECF
:107C1400F3E70026EDE720212846013CFFF762FE4A
:107C2400DDE74E46DBE72846FFF75CFE19F8011F47
:107C34000029F8D130E703B0BDE8F08F2DE9F34116
:107C440088B93D4B3D483E4AC01AC0080E243D4BFE
:107C5400009400043C4940F0010002F054FC20462A
:107C640002B0BDE8F0814AB9334B3448374AC01AF0
:107C7400C0080E2400040094324BEBE7D0F800C097
:107C8400BCF1000F09D12C4B2C48314AC01AC00852
:107C94000824000400942B4BDCE74BB9264B2748FF
:107CA4002C4AC01AC008092400040094254BD1E7CB
:107CB4004768D7F80480B3FBF8F708FB17374FB1D0
:107CC4001D4B1E48244AC01AC0080924000400940D
:107CD4001C4BBFE78F0709D0174B18481F4AC01A1F
:107CE400C008102400040094164BB3E712F0030FED
:107CF40009D0114B11481A4AC01AC00810240004B4
:107D04000094104BA6E7C768B9420BD34C1E056913
:107D14001C44AC4206D8DCF80C40A44602B0BDE8D2
:107D2400F0416047044B05480E4AC01AC0081024AD
:107D340000040094034B8DE7ACFA02001CFB020024
:107D4400C0FC020025FC0200C5FC020042FD02004A
:107D540036FD0200F5FC020048FD020072FD02003F
:107D64008AFD0200ADFD0200F7B580B92A4B2B480D
:107D74002B4AC01AC0080E242A4B009400042A4936
:107D840040F0010002F0BFFB204603B0F0BDD0F884
:107D940000C0BCF1000F09D11F4B2048234AC01A70
:107DA400C0080824000400941E4BE8E74AB91A4BA3
:107DB4001A481F4AC01AC008092400040094194B29
:107DC400DDE74768D7F800E00EF1FF370F4209D02E
:107DD400114B1248174AC01AC0081024000400941A
:107DE400104BCCE7C768B9420CD34C1E05690EFB97
:107DF4000244AC4206D8DCF81040A44603B0BDE807
:107E0400F0406047044B05480B4AC01AC0081024D0
:107E140000040094034BB2E7ACFA02001CFB02001E
:107E2400C0FC020038FC0200C5FC020036FD020062
:107E3400F5FC02004BFC020071FC020029DF7047D4
:107E440028DF704770B503689D6886B004460E4607
:107E54006DB114220021684607F021FDA368059343
:107E6400237901962BB1012B0DD06846A84706B0A3
:107E740070BD01238DF8003023690293E3680393F6
:107E840063690493F1E702238DF80030E3681B0370
:107E94000293F5E7034B187A0122B0FA80F05A7482
:107EA40040097047D02D002070B5244D244E2B7A04
:107EB4002C463BB923492448FFF7B7FB306008B987
:107EC400686070BD0223237233681A7972B1012A83
:107ED40024D018460321FFF7B5FF00232372636003
:107EE40018491948BDE87040FFF7CABBD3E905201B
:107EF400121AB2F5805F28BF4FF48052D3E90315FC
:107F04009208012A014438BF01222844FFF796FF52
:107F140050B11128DDD101232372D2E7D3E9030242
:107F24001044FFF78DFFF3E7237C002BC9D10146F2
:107F3400BDE87040022000F009B800BFD02D002039
:107F4400E82D0020E42D0020C02D002038B5831E2C
:107F5400012B45D8234C237A002B41D0022B09D185
:107F6400032830D0204B1B680022E2601A793AB112
:107F7400012A22D0637C7BBBBDE83840FFF794BF65
:107F8400D3E905128D1AB5F5805F94BF521902F535
:107F940080529A619142EDD102284FF0000308BF4C
:107FA40019462372104B18BF0D211868FFF74AFFBA
:107FB4000E490F48FFF764FBDCE71A6901321A61C6
:107FC4005B699A42E7E7E3680133082B01D8E36071
:107FD400D0E70023E360DFE7BDE8384006F02ABFBE
:107FE40038BD00BFD02D0020E82D0020E42D002056
:107FF400C02D002000F0FD03012B08D1044B00220A
:108004005A74421E504250411874FFF74DBF7047D6
:10801400D02D00202DE9F047B0F806904479D2F82D
:1080240000A09DF8208009FB04F4043C06460AEBFA
:108034000300A0420F4688BFA4EB030A191DC2F82F
:1080440000A0B1FBF9F509FB15114DB9A9EB010429
:10805400544528BF5446BAF1000F04D1BDE8F08757
:108064003668013DF1E704317B1970182246B8F1F6
:10807400000F0ED001461846AAEB040A07F0E6FBEF
:10808400D145254436684C464FF0000128BF54467C
:10809400E1E71946F0E7FFF7B7BBF8B546790146C3
:1080A400721E0546002393422D6803D30024A64282
:1080B40002D8F8BD0133F6E70F682846FFF7DFFB67
:1080C40001343946F3E72DE9F843068ACD1C074607
:1080D400FFF7B1FB043E35440446B5FBF6F5F0B1B9
:1080E4004FF48073EDB28380C680013D0760814602
:1080F4004FF00008A84512D23846FFF79CFB06460D
:1081040048B163790133637108F10108C9F80000CB
:1081140007608146EEE72046FFF7BFFF344620465E
:10812400BDE8F88301210430FFF752BB10B50121EB
:1081340004460430FFF757FB10F0FF0F04D120462C
:10814400BDE81040FFF7A9BF10BD1FB50392002280
:10815400009203AAFFF75EFF05B05DF804FB1FB5AC
:1081640003920122009203AAFFF754FF05B05DF8C1
:1081740004FB026813685268934291BFD01A806866
:108184000130801888BFC01A70472DE9F84303688E
:108194001D685C68A54284BF83680133174688461E
:1081A40094BF641B5C1BC2684168BC42064605FB65
:1081B40002110CD37A43404607F048FBB3683D44B0
:1081C4009D4288BF002533681D60BDE8F88304FB29
:1081D40002F94A46404607F039FBF26871683C1BD5
:1081E400624308EB090007F031FB33681C60ECE7DD
:1081F400036881681A685B688B4234BF01330023CB
:10820400D31A584258417047F7B5002304460DF17C
:1082140007000D468DF80730FEF756FC2046FFF7A1
:10822400E7FF10B1237C002B3CD12268A668536879
:108234005168B14234BF01310021516030B111683D
:10824400A068814234BF013100211160E268606896
:10825400511E072920D8DFE801F004101F141F1F46
:108264001F182A78C2542046FFF783FF23689A68B0
:10827400824200D29860002415E02A8820F8132056
:10828400F1E72A6840F82320EDE7D5E9006700EB21
:10829400C300C0E90067E6E7294602FB030007F0D4
:1082A400D5FAE0E704249DF80700FEF731FC2046E8
:1082B40003B0F0BDF7B506460F4614460025A2B13B
:1082C4000DF107008DF80750FEF7FEFB3046FFF76F
:1082D40050FFA0420CD3224639463046FFF755FFE3
:1082E4002C469DF80700FEF713FC204603B0F0BDB2
:1082F4000524F6E737B5054600240DF107008DF88F
:108304000740FEF7E1FB0C222146286807F0C7FA74
:108314009DF80700FEF7FCFB03B030BD8368002224
:108324005A609A60C3E90422DA601A6070470B68E5
:108334004A684360934208BF0023016008BF43605A
:108344007047436843B10268916852680B44934292
:10835400436004BF002343607047000010B50D491B
:10836400A1F59472914201D800200FE08B1ADB1022
:1083740003EBD3735B1002EBC30452F83330834234
:1083840005D802D204F10802ECE7606810BD21466A
:10839400E8E700BF28FF020008B5FFF7DFFF024B44
:1083A400002808BF184608BDEAFD020038B5074C8E
:1083B400051E04F1080318BF1C4623682BB11A6874
:1083C40022605B6828469847F7E738BDF42D002003
:1083D40020B9054B01225A70FFF7E8BF012802D1EA
:1083E400014A9070F8E77047EC2D002020B9034B48
:1083F40001225A70FFF7DABF704700BFEC2D00204E
:1084040038B50B4C237883B90A486360A3602361B1
:10841400E36000F0A9F9054606F01CFD08B900F078
:10842400AFF901232370284638BD8525FBE700BF3B
:10843400EC2D0020D583020037B50B4C00230DF141
:1084440007008DF80730FEF73FFBE368013BE3606C
:10845400E56815B900F0A6F9A5709DF80700FEF7C8
:1084640057FB03B030BD00BFEC2D0020012813B52D
:1084740009D018B103281CD002B010BD0F4B012243
:10848400C3F88020F8E70E4C00230DF107008DF8A7
:108494000730FEF719FB23780BB9FFF7B1FFE36848
:1084A4009DF807000133E3600123A370FEF730FB5E
:1084B400E2E700F065F9FFF7BFFFDDE700E100E068
:1084C400EC2D002031DF70471FB500238DF8070025
:1084D4000DF10F008DF80F30FEF7F6FA06F0BAFC36
:1084E40050B90DF107010848FFF78EFE0648FFF763
:1084F4007FFE08B100F062FC9DF80F00FEF708FB58
:1085040005B05DF804FB00BF4CFA020007B520B1CA
:1085140003280BD003B05DF804FB0F4B1B78012B31
:10852400F8D100F04BFC00F051FCF3E700230DF10F
:1085340007008DF80730FEF7C7FA07480378012BC8
:1085440005D10649013000F0F9FB00F025FC9DF847
:108554000700FEF7DDFADDE7502E0020CD8402008F
:1085640013B5124C2378FBB9114A8DF80730002853
:1085740008BF10460288A4F801200DF10700FEF799
:10858400A3FA06F067FC30B90A49601C00F0D6FB78
:1085940040B900F001FC01239DF807002370FEF7A9
:1085A400B7FA002002B010BD8520FBE7502E002052
:1085B400E8020300CD84020007B500230DF1070093
:1085C4008DF80730FEF780FA06F044FC18B900F085
:1085D400F5FB00F0FBFB9DF80700FEF799FA044851
:1085E400FFF788FE034B00221A7003B05DF804FB0A
:1085F4004CFA0200502E00202DE9F7430024DFF846
:10860400589005460E46A0460DF107008DF80780E8
:10861400FEF75AFA06F01EFC074638B932462946D8
:108624004846FFF747FE044600F0B6FB9DF80700F6
:10863400FEF76EFA47B131462846FFF743FF42F290
:1086440007039842044605D0022CDDD0204603B02F
:10865400BDE8F0830524F9E74CFA0200F8B50546B5
:108664000C4604B9F8BD402C264628BF4026F7B274
:1086740039462846FFF7C0FF0028F9D1A41B35442A
:10868400EFE700001FB503788DF8003043680193CD
:1086940083688DF80830C3680393054A054B684620
:1086A40053F8213052F82110984705B05DF804FBC7
:1086B400542E0020582E00201FB503788DF800306A
:1086C4004368019383688DF80830C3680393054AAF
:1086D400054B684653F8213052F82110984705B0ED
:1086E4005DF804FB542E0020582E0020F0B5194BE1
:1086F400067891F81DE043F82620174B94460A6942
:1087040043F82620154B03F806E00C4607460FCC29
:1087140089B06D460FC594E80F0085E80F000496F4
:10872400BEF1000F0AD0BCF1000F0D4A694608BF24
:108734000022381D00F044FE09B0F0BDBCF1000F6A
:10874400084A694608BF002207F10C0000F044FC07
:10875400F2E700BF582E0020542E00205C2E00208B
:1087640089860200BD860200044A137923B90121D7
:10877400106091801846704785207047602E002055
:10878400074B1A68D2075FBFC02283F80023012277
:108794001A604FF080430122C3F81825704700BFC8
:1087A40000E100E0044B01221A604FF08042D2F84D
:1087B4001834DB03FBD470470C000040154B07B59D
:1087C4001A687AB100221A601B680093009B4FF06C
:1087D40080430122C3F808230F4B587910B95A710A
:1087E4001B6898470D4B1A6882B100221A601B68F7
:1087F4000193019B4FF080430222C3F80823064BE8
:108804001B68012003B05DF804EB184703B05DF862
:1088140004FB00BF00010040602E00200401004062
:1088240000F1804000F5C040002382B0036003687B
:108834000193019B02B07047800000F1A040D0F882
:10884400003723F44033C0F80037D0F8003743EA48
:108854000141C0F800177047054B4FF0FF3207285D
:1088640043F8202084BF1B1883F84820704700BFBA
:10887400682E002010B5174C94F8583043BB04F10F
:1088840030032021FF22013911F0FF0103F8012BED
:10889400F9D1C8B2FFF7E0FF01310C29F9D1042264
:1088A40000210D4806F0FBFF0C4BC02283F8062381
:1088B40040221A604FF4BE70FFF7B2FF084B4FF02E
:1088C4000042C3F80423012384F85830002010BD6B
:1088D4000820FCE7682E0020BC2E002000E100E008
:1088E40000600040034B93F85800003018BF01208B
:1088F400704700BF682E002030B52E4B1A1892F92D
:108904003040013453D18C78002C4CD01C460022CA
:1089140054F8045B013541D11C1884F8302000243C
:1089240043F82240920002F1804202F5C0420B78E3
:10893400D2F810554C7825F498151B04240525F419
:10894400F85504F4801403F44033C2F8105523435B
:108954000402D2F8105504F4F85423432B43C2F80C
:1089640010354A780123012A4FF0A04203FA00F39C
:108974000CBFC2F80835C2F80C3500F5E0730321CA
:1089840042F82310C2080C49012300F0070003FA3F
:1089940000F08B5C18438854002003E00132082A5D
:1089A400B6D1042030BDFE2382F83030D9E7082048
:1089B400F8E700BF682E0020BC2E00204FF0A04135
:1089C4000122D1F8043502FA00F020EA0302034040
:1089D400C1F80825C1F80C3570470000F0B5374BD5
:1089E4001C1894F93040002C1C4665DA0D78C5F348
:1089F4004005002D0BBF082300230C260826B34294
:108A040001D10420F0BD54F82370013740D1261859
:108A140044F8232086F8303015B9E21882F848006B
:108A2400CA78D20714D40A78D50733D5820002F164
:108A3400A042D2F8005725F00205C2F80057204E94
:108A4400C50800F007070122BA40775D3A43725522
:108A54000A788D7812F0020225D09B0003F180433E
:108A640003F5C0430202D3F8101521F4473121F471
:108A74004071C3F810152D04D3F8101502F4F85200
:108A840005F440352A430A43C3F810250020B9E70A
:108A94000133B4E74D7800F5E0724FF0A046AD0025
:108AA40046F82250CBE7083B234493F8501041EAA0
:108AB400851583F85050E9E70820A3E7682E0020C5
:108AC400BC2E002038B5204C251895F93020072AF3
:108AD40018DD224492F848309B09032B0DD14FF046
:108AE400A043D3F81035C34013F0010F0CBF02218B
:108AF4000321BDE83840FFF79FBE012B14BF0321BB
:108B04000221F6E7D3B2072B1CD8930003F180436C
:108B140003F5C043D3F8100540F00100C3F8100575
:108B240002F14000800080B2FFF77AFE51B195F95E
:108B3400303054F823302BB1012303FA02F2034BF3
:108B4400C3F8042338BD00BF682E00200060004035
:108B54002DE9F04F85B000245A4D01944FF48072F2
:108B6400012102F1804303F5C04390B21B68012B3D
:108B740006D1D5F804330B4202D0FFF751FE0C4363
:108B84000432B2F5907F4FEA4101EAD14E4B1B68A3
:108B9400012B0AD14FF4BE70FFF742FE4FF0A04301
:108BA40044F00044D3F81035019314F0FF0F1AD0A9
:108BB400464F00250126344210D0AB0003F1804318
:108BC40003F5C043D3F81005D3F8101557F8253032
:108BD40023B1C1F30141C0F3042098470135082DA6
:108BE4004FEA4606E7D1002C64DA00224FF0FF3347
:108BF400CDE90223354D01274FF0000A344E544687
:108C04004FF0A04816F9012B531C46D0D2B222F0E3
:108C1400C0094FEAD90104A8084402F0070310F878
:108C240004CC07FA03F31CEA030F36D005EB090C56
:108C340092099CF930C055F82CB0BBF1000F0AD151
:108C4400032A2AD10DF1080E1EF801C04CEA030CC8
:108C54000EF801C001E0032AF4D009F5E07110F820
:108C64000C0C58F821101842C1F3014105D0022917
:108C740013D1032A0BD1114604E003290DD1032A91
:108C840005D102214846FFF7D7FD0134E4B2BBF118
:108C9400000F02D011464846D8470AF1010ABAF13A
:108CA400040FAFD134B14FF0A043019AD3F810357B
:108CB400934202D105B0BDE8F08F0193029B039368
:108CC4009AE700BF006000407C610040682E0020ED
:108CD400B82E0020014B1B68184700BFC42E00208B
:108CE4000E4B984237B50D4602D0002003B030BD7C
:108CF40000230DF107008DF80730FDF7E5FE084B62
:108D04001C7914B901221D601A719DF80700FDF742
:108D1400FFFE002CE9D01120E8E700BF002000404E
:108D2400C42E0020034B984201BF034B00221A605B
:108D34001A71704700200040C42E002010B5124C58
:108D44002278FAB9114B1960037813F0010F104B14
:108D54001EBFD3F8042542F00102C3F80425D3F85A
:108D6400002222F00102C3F800224378094A5B0181
:108D7400DBB282F80D334FF40053136001232370E8
:108D8400002010BD8520FCE7D02E0020CC2E002032
:108D940000D0004000E100E0064B00221A6082B0DF
:108DA4001B680193019B044B0122C3F804231A603E
:108DB40002B0704700D1004000D00040024A0123B5
:108DC400C2F808335360704700D00040064A0123BC
:108DD400C2F808335360054B4FF40052C3F88020A7
:108DE400034B00221A70704700D0004000E100E0FD
:108DF400D02E0020074B00221A6082B01B6801931A
:108E0400019B054BD3F80805044B1B68C0B202B0A4
:108E1400184700BF00D1004000D00040CC2E0020F5
:108E24000023435082B043580193019B02B0704722
:108E34000A4610B54FF48E71FFF7F2FF136A91687A
:108E4400C95C136A01331362C0F81C1510BD8B6929
:108E54000A4610B54FF4847123B9FFF7E1FFD0F847
:108E6400183510BDFFF7DCFF536AD168D0F8180538
:108E7400C854536A01335362F3E700001FB501235A
:108E84008DF80030044BCDE90110D3E90012684697
:108E9400904705B05DF804FBD42E002030B54C4A51
:108EA400D2F8043313F4007F85B015464FD0D2F8BE
:108EB4002431002B4BD04FF492711046FFF7B0FFD2
:108EC4004FF40173C2F80833424B93F8291009B9DF
:108ED400012151603E4902228DF80020D1F88024FE
:108EE400C1F8802403929A690292DA6801920022FE
:108EF400C3E906226846D3E9001290473448D0F803
:108F04001C315BB133490A6A4B699A420A464BD217
:108F140091F82830002B47D1FFF78AFF2C4AD2F86A
:108F2400443193B14FF4A2711046FFF779FF294BF6
:108F340093F8291009B1012111609A692AB100221C
:108F44009A61586AD968FFF799FF05B030BDD5F822
:108F540004335B07D2D5D5F80831002BCED01D4C95
:108F64001B482146FFF773FF636AA2699A422346AE
:108F7400C4D1E269E1684AB12369E3600023606A0D
:108F8400A261E3616362FFF779FFB7E794F82920F0
:108F94000AB901226A600E4A4FF40170C2F808034C
:108FA40000229A61586AEEE74FF48E710848FFF781
:108FB40037FF51690029B1D00023029191688DF8DF
:108FC4000030019153616846D2E900139847A5E740
:108FD40000200040D42E00202DE9F843564F047998
:108FE40091462C2202FB0472064692F82A200D4672
:108FF400002A40F09A8051490068FFF771FE8046CC
:10900400002840F0958029683368481C0BD04FF045
:10901400A04001228A40C0F8082501F5E0724FF013
:10902400030C40F822C06868421C1FBF00F5E072C0
:109034004FF0A04C4FF0000E4CF822E0AA6995F8CE
:1090440014C0C3F824256A7DBCF1010F4CEA020266
:10905400C3F86C25C3F81405C3F80C151DD1AA6810
:10906400511C1FBF02F5E0714FF0A0404FF0000CFF
:1090740040F821C0E968481C0BD04FF0A04C0120F7
:109084008840CCF8080501F5E0704FF0030E4CF869
:1090940020E0C3F80815C3F810252C236343FA18FD
:1090A400C2F804902A69FA50B9F1000F2AD04FF49B
:1090B4008E7130682D7FFFF7B3FE30684FF4A271D4
:1090C400FFF7AEFE32681E4BC2F80433120B51B2E6
:1090D4000029A8BF01F160404FEA4513BABF1948FF
:1090E40002F00F0500F56140DBB2B4BF435580F8D0
:1090F400003302F01F02012303FA02F24909124B62
:1091040043F8212033680422C3F800252C2303FBF1
:1091140004730022C3E9062283F829205A6101223C
:1091240083F82A204046BDE8F8834FF00808F9E7A1
:109134004FF01108F6E700BFD42E0020A18E0200E4
:109144008000020014ED00E000E100E0F8B50479CD
:1091540000682D4D0023C0F800352C2303FB045375
:109164005B6873B1294BC0F80833020B53B2012179
:109174005B0902F01F0201FA02F22033244941F88C
:109184002320D0F80C65D0F81415D0F80835D0F8A1
:1091940010254FF0FF37BE42C0F8147518BF06F50E
:1091A400E076C0F80C75C0F80875C0F810751EBFDD
:1091B4004FF0A0474FF0020C47F826C04E1C1FBFCB
:1091C4004FF0A04601F5E071022746F82170511CCA
:1091D4001FBF4FF0A04102F5E072022641F8226061
:1091E4005A1C1FBF03F5E0734FF0A042022142F85E
:1091F4002310FFF797FD2C2303FB0454002384F86A
:109204002A306360F8BD00BFD42E0020840202001F
:1092140000E100E02DE9F843224F06794FF02C09D4
:1092240009FB067480466569002D37D16261A1602F
:1092340025624FF48E71006884F82850FFF7F0FD22
:10924400D8F80000012383602146FFF7F1FD63682D
:10925400A1462BBBD8F80050226A63699A4212D304
:10926400D8F80030D3F81C21002AFBD00122DA60A0
:1092740000202C2303FB067600237361BDE8F883EA
:1092840094F8283043B9D5F81C31002BF8D049465E
:109294002846FFF7CDFDDFE70F20EAE71120EDE7D1
:1092A4002846EBE7D42E00200023435082B04358D5
:1092B4000193019B02B070471FB501238DF8003064
:1092C400044BCDE90110D3E900126846904705B07C
:1092D4005DF804FB002F00207FB5374AD2F82461E3
:1092E400002E48D010464FF49271FFF7DDFF0223A1
:1092F4008DF80030D2F88034C2F880340393D2F869
:109304003C3502932D4BDA6801920022C3E9062210
:109314006846D3E900129047274AD2F844317BB11A
:109324004FF4A2711046FFF7BFFF244B996939B17E
:109334000021C3E90611D968D2F83C05FFF7BCFF48
:109344001D4AD2F82031A3B14FF490711046FFF7B3
:10935400ABFF1A4B596961B1D2F84C150291002246
:1093640099688DF8002001915A616846D3E900128A
:10937400904704B070BDD2F81031002BCCD04FF41C
:1093840088711046FFF790FF0C4BD2F83C059969A1
:109394008842C1D1DC69D96864B1D2F8005225F0A1
:1093A4002005C2F800521A699C61DA60DE61FFF799
:1093B40083FFB1E79C61FAE700200040002F002002
:1093C4002DE9F8435A4F06799146242202FB06728E
:1093D400044692F820200D46002A40F0A280554908
:1093E4000068FFF77DFC8046002840F09D802968D6
:1093F4002368481C0BD04FF0A04001228A40C0F8DB
:10940400082501F5E0724FF0030C40F822C06868AB
:10941400421C1FBF00F5E0724FF0A04C4FF0000E4D
:109424004CF822E0AA6995F814C0C3F824256A7D93
:10943400BCF1010F4CEA0202C3F86C25C3F80C1509
:10944400C3F814051DD1AA68511C1FBF02F5E071B1
:109454004FF0A0404FF0000C40F821C0E968481CD0
:109464000BD04FF0A04C01208840CCF8080501F542
:10947400E0704FF0030E4CF820E0C3F80815C3F871
:10948400102524237343FA18C2F804902A69FA5069
:10949400B9F1000F34D04FF4887120682D7FFFF7A5
:1094A40003FF4FF490712068FFF7FEFE4FF49271B2
:1094B4002068FFF7F9FE20684FF4A271FFF7F4FE6D
:1094C40022681D4BC2F80433120B51B20029A8BF05
:1094D40001F160404FEA4513BABF184802F00F0586
:1094E40000F56140DBB2B4BF435580F8003302F0AD
:1094F4001F02012303FA02F24909114B43F8212008
:1095040023680822C3F80025242303FB06730022E2
:10951400C3E906225A61012283F820204046BDE8AF
:10952400F8834FF00808F9E74FF01108F6E700BF99
:10953400002F0020DD9202001003020014ED00E071
:1095440000E100E0F8B5047900682D4D0023C0F86F
:109554000035242303FB04535B6873B1294BC0F823
:109564000833020B53B201215B0902F01F0201FA16
:1095740002F22033244941F82320D0F80C65D0F8B6
:109584001415D0F80835D0F810254FF0FF37BE4237
:10959400C0F80C7518BF06F5E076C0F81475C0F86D
:1095A4000875C0F810751EBF4FF0A0474FF0020CAD
:1095B40047F826C04E1C1FBF4FF0A04601F5E071CE
:1095C400022746F82170511C1FBF4FF0A04102F53D
:1095D400E072022641F822605A1C1FBF03F5E073B3
:1095E4004FF0A042022142F82310FFF79BFB2423F3
:1095F40003FB0454002384F820306360F8BD00BFEB
:10960400002F00201003020000E100E001F060439D
:10961400B3F1005F2DE9F041074632D11C4B0679C6
:10962400242505FB063598466C6964BB6A61A9600C
:1096340000684FF49071FFF737FE4FF4AC7138684F
:10964400FFF732FE3B686A69A968C3F84415C3F89A
:10965400482501229A606A68BAB9D3F82011D3F870
:10966400582149B9002AF8D00F20242303FB068689
:1096740000237361BDE8F081002A14BF0F2000208D
:10968400F3E71020F6E71120F4E72046F2E700BFE5
:10969400002F00200023435082B043580193019BC4
:1096A40002B07047F0B54C4A4C4CD2F8243187B024
:1096B4001546A3B14FF492711046FFF7EBFFD2F8B1
:1096C400043163B9A368C2F808330223A360A36812
:1096D400C2F8043301231362536107B0F0BDD5F817
:1096E4000431002B49D03E4F3B484FF48271FFF7C1
:1096F400D1FF0FCF01AE0FC63B68336094F82E3014
:109704007BB1237B012B0CBFD5F83C25D5F84C2528
:109714000292022B304B0CBFD3F83C35D3F84C35B6
:1097240003934FF4B0712C48FFF7B4FF4FF4AE71BC
:109734002948FFF7AFFF94F8303013B194F82E3076
:109744003BB1254B0022C3F80022A260254AC3F88E
:109754000823214AD2F8C434C2F8C4349A0736D54F
:1097640001238DF8003094F830300BB984F82F3091
:10977400D4E9003168469847AFE74FF4A47116481E
:10978400FFF788FF237B83B9154F0FCF01AE0FC6B8
:109794003B68336094F83030002BDAD1C5F80032DE
:1097A400A360104BC5F80833D3E74FF40073C5F832
:1097B400003240F20223A36003F1CE73C5F80833EC
:1097C400A368C5F804330123AB602B6285E713F06B
:1097D400040318BF0223C4E700300040242F0020F4
:1097E400302F002002029C012DE9F84F0579334CFB
:1097F4004FF0340808FB05F804EB08069B4696F87E
:109804002D3081460F469246002B52D12C490068D8
:10981400FFF766FA00284ED139687B7B86F8323030
:1098240001F5E0724FF0A043B060C6F804B086F8CA
:109834002F0086F8300040F20C6644F808A043F884
:1098440022607A6802F5E07C43F82C60D9F8003095
:10985400C3F80815C3F80C25BA68C3F82425BAF16F
:10986400000F1ED01B0B59B200293A7BB4BF154E12
:1098740001F16046DBB2B8BF03F00F074FEA4212B2
:10988400A8BF06F56146D2B2B4BFF25586F80023EC
:1098940003F01F03012202FA03F349090A4A42F8BA
:1098A4002130342303FB0544012384F82D30BDE823
:1098B400F88F0820FBE71120F9E700BF242F0020D0
:1098C400A996020014ED00E000E100E002680379CB
:1098D4000621C2F80015044A342101FB03230222A5
:1098E40083F82D20704700BF242F00202DE9F84372
:1098F400CB6803F06043B3F1005F0D46904603D09C
:1099040010221046BDE8F8830779964E0468964BFA
:10991400C4F808334FF0340C0CFB076C9CF82F3060
:109924002BB1DCF80830C4F804331122E9E712F053
:10993400140F0CBF012300238CF82F308946B9E89B
:109944000F000CF10C0EAEE80F00D9F80030CEF881
:109954000030C8F300138CF830306B78C4F88835C5
:109964004FF482712046FFF795FE4FF49271FFF792
:1099740091FE18F0010318BF0123C4F8503518F004
:10998400020318BF0123C4F840352B78032B00F2DF
:10999400C780DFE803F087AF68022B6903F06043F8
:1099A400B3F1005FACD14FF48073EA68C4F80032BD
:1099B4006B68C4F844254FF4A871C4F84835FFF720
:1099C40069FE4FF4B071FFF765FE4FF4A471FFF721
:1099D40061FE01232362A360D4F85031002BFBD035
:1099E4004FF4A8712046FFF755FEAB682A69C4F806
:1099F4004425C4F84835342303FB07635B4A9A6063
:109A04004FF482730821002218F0080F04D128783B
:109A140003281CBF01206050342179437018715809
:109A2400002940F08280012523441968002900F0B0
:109A340089803421D4F8C434C4F8C43401FB0766E3
:109A4400002186F82F10002B3FF45BAF13F0020FB8
:109A540048F2012208BF032213F0040F48F2022344
:109A640018BF1A464DE76B68EA68C4F84425C4F881
:109A740048352B6903F06042B2F1005F7FF440AFD8
:109A8400AA68C4F834354FF48453C4F83825C4F8AC
:109A94000032342303FB076340F202229A6001235D
:109AA4002362ADE76B68EA68C4F8442518F0200F18
:109AB400C4F848354FF0340310D003FB07634FF468
:109AC4008072C4F80022294A9A604FF4A471FFF707
:109AD400E1FD4FF4A4730122226293E74FF4007274
:109AE40003FB0763C4F8002240F202229A604FF499
:109AF4008273F0E76B68EA68C4F83425C4F8383533
:109B04004FF48053C4F80032342303FB076340F25C
:109B140002229A600123236200214FF4827372E7C8
:109B24004FF48273082107226EE718F0040F1CBF5C
:109B34004FF400738360342303FB0766B368C4F8EF
:109B44000433DEE6D4F8241100293FF46EAF4FF459
:109B540092712046FFF79EFD25624FF48273656182
:109B640062E700BF242F002002029C0100020400CF
:109B7400F0B587B004460F4615460021142201A80B
:109B84001E4605F08CFE9DF830308DF80570002BD4
:109B940014BF2022002201A9204602960495FFF753
:109BA400A5FE07B0F0BDF0B587B004460F461546D4
:109BB400002112220DF106001E4605F070FE01235D
:109BC400002201A920468DF804308DF80570029614
:109BD4000495FFF78BFE07B0F0BD0000F7B50679DA
:109BE4002F4D0C237343EF183C7A002C55D1EA50C7
:109BF4004B687B60477903682246D0B2874243D8DA
:109C04001A0B54B2C878002CA8BF04F16047D2B232
:109C1400BABF02F00F0C234F07F561474FEA40101B
:109C2400C0B2B4BF07F80C0087F800036409012030
:109C340002F01F021C4F00FA02F247F824204A786F
:109C4400D3F8044502F0030224F003042243C3F8CA
:109C54000425D3F808458A7824F0030402F00302AB
:109C64002243C3F80825D3F810450A7824F00F04DA
:109C740002F00F022243C3F810250C2303FB065500
:109C84002872002003B0F0BD900000F5A0700132EE
:109C94001C50185801900198AFE70820F2E700BF64
:109CA400582F002014ED00E000E100E003680122D9
:109CB4001A600379034A0C2101FB032302221A725E
:109CC400704700BF582F002037B54FF480348C40C4
:109CD40000687BB101F150039B000025C550C358B7
:109CE4000193019BC0F8044301F5A87140F82120B9
:109CF40003B030BDC0F80843F6E770B4046840F21E
:109D04000116D4F800528E4025EA0605C4F8005224
:109D1400D4F800522B43C4F800329DF80C3070BCC8
:109D2400FFF7D2BF2DE9F341104C114F114E00251E
:109D34004FF480382368A4F5004080B26BB1D7F8A3
:109D4400043308FA05F21A4207D00023236023687B
:109D54000193019BD6E9003198470135042D04F1A4
:109D64000404E7D102B0BDE8F08100BF40810040A7
:109D740000800040582F00207047000007B5044BB6
:109D84000093044A402300F032F803B05DF804FB6A
:109D94009D9D0200652F00202DE9F8438946144655
:109DA400B2B10F4B0F4E0325002743F001082246A2
:109DB40009EB0701002001F00FFD0744241A48B9FC
:109DC40033782BB14FF47A40C047013D02D135704E
:109DD400BDE8F88301233370002CE8D1F8E700BF15
:109DE40020030300642F0020704701F056BDF0B536
:109DF40095B01C46164608460D46FEF793F91A9B85
:109E04000D93CDE9086400242346082205A92846B9
:109E14000A948DF82C400C94FEF7A1F9079B029349
:109E2400069B03939DF814308DF8114003F0030250
:109E3400012A1DD1BDF81440059EC3F3C203C4F327
:109E440083148DF81030A20008230EA92846FEF7CB
:109E540086F9C6F3952608AB0093224602AB0EA9F9
:109E6400304600F0EFFB2846FEF760F915B0F0BD70
:109E7400022AF8D1BDF81640C3F3C203A4098DF831
:109E840010300827082C264628BF08263B463246B1
:109E94000EA92846FEF763F9A41B08AB02AA3146B3
:109EA4000EA8374400F032FC002CEBD1DBE70000B5
:109EB400014B01221A707047E62F00207047000002
:109EC40070B50E4D06460FCD88B06C460FC495E8AC
:109ED4000F00002E84E80F004FF00603084A0948DB
:109EE400009308BF00226946FEF700FC08B1FCF7A6
:109EF40035FB054B1E7008B070BD00BF3403030072
:109F0400B59E0200A42B0020A52F002007B5044B0A
:109F14000093044A4023FFF76AFF03B05DF804FB93
:109F24002D9F0200A62F002038B50D4B0D4D0020AB
:109F340018700D4804782D5DD2B21C4665B104300A
:109F4400FFF764FB08B1FCF709FB084B1A7812B160
:109F54002378002BFBD038BD0C30FFF75BF9F1E719
:109F6400E62F00205C2E0020A42B0020A52F00202B
:109F740008B50848084A0378D35C3BB10430FFF7BE
:109F8400E1FA0020BDE80840FFF79ABF0C30FFF764
:109F9400DDF8F6E7A42B00205C2E00200120FFF75B
:109FA4008FBF000038B50A4DFFF71FFF0421284674
:109FB40000F0B6FA074B01245C71FFF7EFFF0421B0
:109FC40005F1100000F0ACFA034B5C7138BD00BF22
:109FD4009CFB0200B82B0020C02B0020037813F058
:109FE400040216D003F00303012B03D0022B09D083
:109FF400012070470A6800880232C0F383100244CB
:10A004000A60F5E70B684288023303EB92130B6096
:10A01400EEE71046704700002DE9F04F87B00023AB
:10A024000446851C0DF107000F4690468DF8073055
:10A03400FCF74AFD454806683E60D0E90132134406
:10A0440001339B1B824600F21C4600F5836900F233
:10A054001447AB421BD30022B8F1000F70D0052384
:10A0640063F3070264F38912DAF80010DAF80830AF
:10A074009DF807000B4003330D444AF82320CAF827
:10A084000050FCF745FD012007B0BDE8F08F012129
:10A094003046FDF79DFB4846FDF7B0FB3846FDF71B
:10A0A400ADFBDAF80400DAF808B0029000EA0B001D
:10A0B40003300AEB800002A9FFF790FF029B50BB1C
:10A0C4000BEA03020AEB820203F1020CD268039248
:10A0D400013303EA0B0B0AEB8B0B02F00302012A98
:10A0E400CDF808C0DBF80C1022D0022A16D0834623
:10A0F4003846FDF786FB10B1029BCAF80430594676
:10A104003046FDF765FBDAE901231344DAF8002051
:10A1140001339B1A9DE70BEA0300C9E7BDF80E3033
:10A124009B0903334FEA114B0CEB93030293DFE7D4
:10A13400BDF80C30C3F383134FEA114B6344F5E7C6
:10A14400062363F3070264F39F528DE7B8300020BF
:10A154000B4B0C48FF2210B59A600022C3F8182458
:10A16400C3E90022C3F8142483F82024FDF793FFE5
:10A17400044610B90448FEF7D1F8204610BD00BFCC
:10A18400B830002090FA02008403030030B50A4C72
:10A1940071B10A4A0A49121BD20800239A4201D11A
:10A1A400002030BD31F82350854202D00133F5E759
:10A1B400034654F83300F4E7ACFA02009CFB0200B7
:10A1C400A42B0020094B013903EBC000032909D853
:10A1D400DFE801F00A0204060420704700797047A2
:10A1E400407970470020704702207047ACFA0200A3
:10A1F400034BD3E90030C31A58425841704700BF9B
:10A20400B83000202DE9F04387B0FFF7F1FF064690
:10A21400002840F0FB807E4DC5F81804BFF34F8F33
:10A224006868AC6802902040033005EB800002A906
:10A23400FFF7D4FE029B18B1D5F81824002A5FD08A
:10A2440004EA0302991C013305EB8202234005EB67
:10A254008303D268DB68049302F00303022B0392A6
:10A26400029162D1BDF80E306A484FEA9318B8F1F2
:10A27400500FC14628BF4FF0500969F38F1309F1FD
:10A284000801ADF80E30FDF71EFF0746002800F068
:10A29400A880FDF747FF03A9002308223846FDF7ED
:10A2A40054FF029924EA01060136B600B14535D9B6
:10A2B4005FFA89F97EB3F6B2A9EB060921400331AE
:10A2C4005FFA89F4B146544E05EB810108234A46EE
:10A2D4003846FDF73AFF36B109F108032246314604
:10A2E4003846FDF732FF029B08F1030803EB98039D
:10A2F4000293D5F81834002B4BD1D5F810445BE009
:10A304002A689A4204D86A60304607B0BDE8F083F0
:10A3140004EA030088E740493446D7E72140033183
:10A3240008234A4605EB8101DAE7012B59D1BDF830
:10A334000C303848C3F38311062928BF062161F382
:10A34400891302318900ADF80C30FDF7BCFE0746D5
:10A35400002846D0FDF7E6FE0023082203A938466C
:10A36400FDF7F3FE0026BDF80C20C2F38312B30000
:10A37400964203F10803BCD202994A1C21400331DE
:10A38400029205EB810104223846FDF7DEFE013618
:10A39400E9E73846FDF7CAFEFFF72AFF80F001001F
:10A3A400C6B2B1E7E3685B7923B1236839461B6819
:10A3B40020469847E3681C68002CF3D13846FDF723
:10A3C400B5FE0DF107008DF80740FCF77DFBD5F8CD
:10A3D40018340BB9029B6B609DF80700FCF798FBDF
:10A3E400DAE7D5F8104454B90C4B0D480D49C01A9E
:10A3F400C008000440F0020000F06EF8CCE72368C7
:10A4040020469B689847E3681C68ECE700267BE7D6
:10A41400B830002090FA0200C4300020ACFA0200E8
:10A42400ECFA0200900303002DE9F74F284C804614
:10A434000F46924601A9012218469B46D4F808907B
:10A44400FFF7EAFD80B3019D0026A91C5E4506EBDB
:10A45400010233D100211F48FDF779F980F3100080
:10A464006A1C02EA090204EB8202000405EA0903F9
:10A47400033340EA1840D06014F8232068F3C5027F
:10A4840004F8232034F8232066F3891224F82320C7
:10A4940054F8232067F39F2244F8232002F0F802A3
:10A4A40042F0010204F8232094F820341BB1FFF792
:10A4B400A9FE0028FBD103B0BDE8F08F09EA02022F
:10A4C40004EB82025AF82630D3600136BEE700BF9F
:10A4D400B8300020D434002000231A46FFF7A4BF6C
:10A4E40007B50123019201AAFFF79EFF03B05DF8AF
:10A4F40004FB07B5CDE9002302236A46FFF794FF66
:10A5040003B05DF804FB1FB5CDE90123069B03935B
:10A5140001AA0323FFF788FF05B05DF804FB0000E0
:10A5240030B50F49D1F81024002314463CB9C4684F
:10A53400237152B9C1F810042260184630BDE46892
:10A5440025799D4206D02468F0E7D268116821601D
:10A554001060F2E701330A2BE7D14FF0FF33ECE749
:10A56400B8300020094A38B50123D2F8104482F8E3
:10A5740020341D4604B938BDE3685D712368204664
:10A584005B689847E3681C68F4E700BFB8300020B4
:10A59400037A052B10B50C460FD0437A23B1084A31
:10A5A40008492046FDF790F907492046FDF78CF944
:10A5B4002046BDE81040FDF77CB9002AF8D0F3E747
:10A5C400DB0303006A270300FD030300C38873B59C
:10A5D40004460D4633B1144A00921449144A2846DD
:10A5E400FDF772F9217A05291CD0637A4BB1A08852
:10A5F400FFF7E8FD0F4B104953F820202846FDF7DC
:10A6040063F9227A0D4BA08853F822600021FFF7EA
:10A61400BDFD0B4903463246284602B0BDE87040F2
:10A62400FDF752B902B070BDDB030300E803030079
:10A63400E0030300A80303006A2703000C040300DB
:10A64400000403002DE9F04385B01F460C9D002350
:10A6540006460C46904695F80C902B7329463846CE
:10A66400FFF7B4FFB8F1060F09D8DFE808F00412C9
:10A67400181F2833400031462846FDF725F90022EB
:10A6840029463846FFF784FF85F80C9005B0BDE8ED
:10A69400F083226831462846FDF716F9EFE7D4E93E
:10A6A400002331462846FDF70FF9E8E7A368009335
:10A6B4003146D4E900232846FDF706F9DFE7E368CD
:10A6C4000193A36800933146D4E900232846FDF79B
:10A6D400FBF8D4E723690293E3680193A36800932A
:10A6E4003146D4E900232846FDF7EEF8C7E763694D
:10A6F400039323690293E3680193A36800933146AB
:10A70400D4E900232846FDF7DFF8B8E708292DE946
:10A71400F84F80460E4617461C463AD8002593F853
:10A724000C901D7319461046FFF750FFDFF884A004
:10A73400DFF884B0AE422ED918F8052059462046D9
:10A74400FDF7C2F80135082DF4D11849DFF86CB0D3
:10A754002046FDF7B9F84FF0000A564520D918F8FD
:10A764000A507E2D03D8284604F06EFF00B92E252A
:10A774002A4659462046FDF7A7F80AF1010ABAF11C
:10A78400080FEAD1012221463846FFF701FF84F879
:10A794000C90BDE8F88F51462046FDF795F8D1E7B7
:10A7A40003492046FDF790F8E7E700BFD60303000E
:10A7B400D4030300D2030300CC030300D803030033
:10A7C4004FF48C72002105F06AB820B100F58C7347
:10A7D4000022984200D1704700F8012BF9E70000ED
:10A7E400C02AF0B541D0B2F5807F40D0802A40F035
:10A7F400C5800A230446036000F10803520944F8A3
:10A80400043F01EB82028A4233D103680C2B3ED011
:10A814000E2B6CD00A2B26D15A4D5B4900F1A006B1
:10A82400426955F8044B8768C2F307237C40CB5C2C
:10A834006340140E10300C5D83EA0443D4B20C5D03
:10A8440083EA0463C2F307440C5D83EA042350F8EB
:10A85400044C836063400468C360634003615340F5
:10A8640043618642DCD100208AE00C23C2E70E2338
:10A87400C0E78B784D781B0443EA05230D782B43FE
:10A88400CD7843EA056344F8043F0431BBE73D4C0B
:10A894003D4900F1C005C26954F8046B8768C2F3EE
:10A8A40007237E40CB5C7340160E18308E5D83EA1E
:10A8B4000643D6B28E5D83EA0663C2F307468E5D15
:10A8C40083EA062350F80C6C8360734050F8086CDC
:10A8D400C360734050F8046C0361734006684361BD
:10A8E400734083615340C3618542D4D1BBE7254D96
:10A8F400254900F1E006446A55F8042B8768C4F33F
:10A9040007237A40CB5C87695340220E20308A5C4F
:10A9140083EA0243E2B28A5C83EA0263C4F3074235
:10A924008A5C83EA022350F8142C8360534050F865
:10A93400102CC360534050F80C2C03615340DAB21E
:10A9440043618A5C7A401F0ECF5D82EA0762C3F3DB
:10A954000727C3F30743CF5DCB5C82EA072282EA71
:10A96400034350F8042C836153400268C36153408D
:10A974000362634043628642BDD174E76FF01F00F7
:10A98400F0BD00BF6C1503006B0403002DE9F04F0C
:10A9940047680D683B684C688E68C968DFF8988220
:10A9A400DFF898E2DFF898C25D407B685C40BB68E2
:10A9B4005E40FB684B4001688FB04910013900913B
:10A9C40007F1300151F8107C0197EFB251F8200CD7
:10A9D40058F8277087EA00091F0E95485EF827701B
:10A9E40089EA0709C4F307274FEA146B5CF8277058
:10A9F4005EF82BB089EA0709C6F30747203150F8FF
:10AA0400277089EA0709E7B25FFA89F058F82770D6
:10AA1400029051F83C0C87EA000A2F0E84485EF835
:10AA240027708AEA070AC6F30727C4F307445CF8C9
:10AA340027708AEA070AC3F3074750F827708AEA9F
:10AA4400070AF7B2CAF30720039058F8277051F8A1
:10AA5400380C474087EA0B07C3F3072B74485CF8AC
:10AA64002BB087EA0B07C5F3074BDBB250F82BB0CA
:10AA740058F8233087EA0B07C7F30740360E0490D3
:10AA840051F8340C5EF82660C5F307254340684846
:10AA940073405CF8256050F8244051F82C0C059064
:10AAA40073406340C3F30740069051F8280C0790A5
:10AAB400F8B20890C3F3072009901D0EC9F30740AC
:10AAC400DBB20A900D93009B4FEA1A600B90002BA7
:10AAD40051F8240C0C905FFA8AF4C7F3072B4FEA61
:10AAE4001966CAF3074AC9F307294FEA17675CDCFA
:10AAF4005049039B019811F803C0029B0C5DCB5C89
:10AB040043400498085C83EA0C2383EA0043485DCD
:10AB1400059D83EA006311F80B0013706C4084EA0E
:10AB240000240698089D085C4D5D84EA0044885D15
:10AB3400079E84EA00640998085C754085EA00254C
:10AB44000A980C9E085C85EA00450B98085C85EA27
:10AB540000650D98085C704011F8096080EA0620D1
:10AB640011F80A60C95D80EA064080EA0161180AAA
:10AB74005070180C1B0E9070D370230A5371230C61
:10AB840093712B0A53722B0C93720B0A1471157266
:10AB9400240E2D0E117353730B0C090ED471D57240
:10ABA4009373D1730FB0BDE8F08F029B5EF825500C
:10ABB40058F823301E4858F824405EF827706B403C
:10ABC400019D6B40039D5CF825505D40049B50F84B
:10ABD40023305D405EF826305C40059B5C405CF8A9
:10ABE4002B305C40069B50F823305C40089B58F89F
:10ABF40023600B9B5EF823305E40079B5E40099BFD
:10AC04005CF823305E400A9B50F823305E400D9B75
:10AC140058F823307B400C9F7B405CF829707B40C4
:10AC240050F82A707B40009F013F0097CAE600BF9E
:10AC34006C0D03006B0403006C0503006C1103002E
:10AC44006C0903002DE9F04F47680C683B684E68B7
:10AC54008D68C968DFF89C82DFF89CE2DFF89CC24B
:10AC64005C407B685E40BB685D40FB684B400168AC
:10AC74008FB049100139009107F13001E7B251F862
:10AC8400100C58F82770019051F8200C87EA00093D
:10AC9400370E96485EF8277089EA0709C3F3072739
:10ACA4004FEA136B5CF827705EF82BB089EA07094A
:10ACB400C5F30747203150F8277089EA0709DFB246
:10ACC4005FFA89F058F82770029051F8340C87EA3B
:10ACD400000A270E85485EF827708AEA070AC5F33A
:10ACE4000727C3F307435CF827708AEA070AC6F309
:10ACF400074750F827708AEA070AEFB2CAF3072019
:10AD0400039058F8277051F8380C474087EA0B072E
:10AD1400C6F3072B75485CF82BB087EA0B07C4F31E
:10AD2400074BF6B250F82BB058F8266087EA0B07A9
:10AD3400C7F307402D0E049051F83C0C5EF82550E3
:10AD4400C4F30724464069486E405CF8245050F828
:10AD5400233051F8280C07906E405E40F8B251F849
:10AD64002C3C0890C6F3072005930990CAF30743C7
:10AD7400C9F3074006930A904FEA1A600B9051F802
:10AD8400240C0C90C6F307400D9000980028C9F3DA
:10AD9400072B4FEA17634FEA1664F5B25FFA8AFA93
:10ADA400C7F307274FEA19695CDC51490398019EF0
:10ADB40011F800C00298085C7040049E8E5D80EA21
:10ADC4000C2080EA06400E5D11F80B4080EA066014
:10ADD4004E5D059D10706E4086EA0426069C0C5D4F
:10ADE40086EA0446CC5C099B86EA0464CE5C089B34
:10ADF400CD5C079B5D400A9BCB5C85EA062585EA12
:10AE040003450B9B0C9ECB5C85EA036511F80A3065
:10AE14007340CE5D83EA06230D9E8E5D11F8091002
:10AE240083EA064383EA0163010A5170010C9170BD
:10AE3400000E210AD0705171210C9171290A5172AE
:10AE4400290C9172190A14711572240E2D0E1373A4
:10AE54005173190C1B0ED471D5729173D3730FB047
:10AE6400BDE8F08F029E5EF8244058F826601F4823
:10AE74005EF823305EF829905CF827707440019ED8
:10AE84007440039E5CF826607440049E50F826606B
:10AE9400744058F825605E40059B5E405CF82B309A
:10AEA4005E40069B50F823305E40089B58F82350C0
:10AEB4000B9B5EF823305D40079B5D40099B5CF86B
:10AEC40023305D400A9B50F823300C985D4058F8BD
:10AED4002A3083EA090343407B400D98034F57F817
:10AEE4002070009801387B400090C7E6941E030050
:10AEF400941503009416030094220300941A03008B
:10AF040010B50129144621461A4603D1FFF73EFD28
:10AF1400002010BDFFF796FEFAE72DE9F041B2F5E7
:10AF2400C07FADF5467D06468846154678D84FF471
:10AF3400D07200215EA804F0B2FC18A8FFF740FC10
:10AF440064AF6BBA2A460024ADF88A3141463023F7
:10AF540038468DF88F31ADF8884104F077FC8023B2
:10AF640004AA7B5511461935234602F8013B0133E7
:10AF7400202BFAD14FF4807218A8FFF731FC00247B
:10AF840010220021684604F08AFC0DF28717A846B7
:10AF94006A46A7F11003117813F8010F41409F424C
:10AFA40002F8011BF7D1B8F1100F94BFA8EB080801
:10AFB400A8F110086B466A46012118A8FFF7A0FF04
:10AFC4001037B8F1000FE3D10CAB18191022694601
:10AFD40004F03CFC9DF87B3110340133302C8DF8A7
:10AFE4007B31CDD14FF480720CA918A8FFF7F8FB80
:10AFF40006F1300414AB1A46012118A8FFF780FFAC
:10B004003046102214A9103604F020FCB442F1D1C9
:10B0140018A8FFF7DAFB00200DF5467DBDE8F081A6
:10B024006FF03700F8E72DE9F0438DB004460D4684
:10B0340030220021684604F032FC002604F10F0996
:10B0440004F120086F460DEB0603494600E0014673
:10B054000A7808460132D2B200F801290AB9A1429D
:10B06400F5D12246012140461036FFF749FF302E24
:10B07400E8D16B1E2F353A7813F8011F4A409D42E0
:10B0840007F8012BF7D169464FF480724046FFF769
:10B09400A7FB102208A9204604F0D8FB00200DB01D
:10B0A400BDE8F0834FF4A072002104F0F8BB10B5A2
:10B0B400044638B12030FFF788FB04F5A073002262
:10B0C4009C4200D110BD04F8012BF9E72DE9F041B1
:10B0D4008369B3F5C07FE0B00446884617462DD88F
:10B0E400C3F5C073934229D34FF4C072002168465C
:10B0F40004F0D5FBD4F83831A269D4F83C01694690
:10B1040098470546E8B9A669B8F1000F07D037B1EA
:10B114000DEB06003A46414604F098FB3E443246A5
:10B1240069466846FFF7F9FE69462046FFF77BFF4C
:10B1340001232361284660B0BDE8F0816FF0370534
:10B14400F8E76FF03305F5E72DE9F041044688B0E0
:10B15400884617460021202204F1200568461E4631
:10B1640004F09DFB2846FFF72BFB0F9BA36142F2E3
:10B174001073E3616946C4E94E874FF48072284630
:10B18400FFF72EFB0E9A31462046FFF79FFF08B0CB
:10B19400BDE8F08113B530240194049C0094FFF7BA
:10B1A400D3FF02B010BD28B139B10023C1E900308A
:10B1B4001846704748F21050704748F213507047D1
:10B1C40070B505460C461E46FFF7EDFF70B9AB7926
:10B1D4006AB1B3420ED12979094B53F8213063B1D6
:10B1E40011462046984708B9064B236070BD48F2C3
:10B1F4001050FBE748F21150F8E748F20350F5E726
:10B20400942603007052464DF0B528B14079D1B16F
:10B214008AB948F2135015E01846F8E7441E002591
:10B224004E5D0F5D575516550135013CA542F7D9C2
:10B234001B1A014402448342F0D2002B48F21150FD
:10B2440008BF0020F0BD48F21050FBE7054B1A7808
:10B25400022A04D01878431E5842584170470120EE
:10B26400704700BF7435002070B51B4B6A469A4284
:10B2740006460D4605D3FFF7E9FF78B94FF40540BC
:10B2840070BD164B16481749C01AC008000440F098
:10B294000100FFF721F948F21950F1E7124C236835
:10B2A40023B1124B1A68124B9A420FD086B97DB95A
:10B2B400104811492060FBF72DF90028E0D10B4B11
:10B2C4000B4A1A6023680D4A1A60D9E70020D7E7B1
:10B2D40048F21750D4E700BF00E00020ACFA0200A7
:10B2E400ECFA0200A0260300C4360020BC3600207D
:10B2F4006572E54B78350020C03600206169614DE8
:10B30400094B0A4A196891420AD1094A1068094A44
:10B314000168914204D1002202601A60FBF716B959
:10B3240048F20250704700BFBC3600206572E54BFE
:10B33400C43600206169614D1120FDF73FBB000058
:10B34400B0F5A07F10B515D10B4C6379052B2046C1
:10B354000CD803F082FE94F94130022B0ADC012B55
:10B3640008D02046BDE8104003F090BEBDE8104070
:10B3740003F047BE10BD00BFB8390020B0F1804FC4
:10B3840038B504460D460CD3074800F088FA01206E
:10B39400FAF78EFFA00024F0404404F007FB2C6071
:10B3A40001E00028F6D138BDCC26030010B50446D0
:10B3B400006808B104F012FB204610BD034610B526
:10B3C400CC1A104604D02246194604F022FA20442E
:10B3D40010BD00002DE9F0432DED028B304E314CB1
:10B3E40083B0304603F01AFF002122680846FFF7B5
:10B3F400E5FF236863607379052B48D837464FF01F
:10B40400000896F86431434541DDB7F84C30B7F88D
:10B414004E209B1A07EE903AD4E901539D42B8EEB0
:10B42400E78A06D0A5EC018A656008F101080437B3
:10B43400E7E72368EB1A9B10012B184638BF01205D
:10B444001B182CBF01220022B3F1804F1CD2002A0A
:10B454000CBF18466FF0404001A90190FFF78EFF22
:10B464002946024681462068FFF7A8FF0546206862
:10B47400A5EC018A08B104F0B1FA019B09EB83033E
:10B48400C4E90095A360D0E76FF04040E4E7064BC1
:10B4940001221A7003B0BDEC028BBDE8F08300BF3B
:10B4A400B8390020AC390020C83600201FB51B2154
:10B4B4001A22CDE900124FF0C86200230292022240
:10B4C400039369468DF80C2006481A46FEF78CF95A
:10B4D40008B1FBF743F80348FEF7F8F905B05DF847
:10B4E40004FB00BFC42603002DE9F0434FF40041E0
:10B4F400DFB00020FEF72CFE08B1FBF72FF8FEF7B3
:10B5040051FD554C554B5649E41AE408240444F0C3
:10B5140003042046FEF7E0FFFEF774FE0028FBD18B
:10B52400FFF7C4FFFDF7DEF920B9FDF7A3F908B171
:10B53400FBF714F8002503A91120ADF80C508DF881
:10B544000E50FDF7D9F908B1FBF708F840F20233C1
:10B554000495444AADF8103004A902230E208DF856
:10B564001230FDF73BFA08B1FAF7F8FF3E4D01211E
:10B574000E20FDF7A7FA3D4904A803F0DFFC04A957
:10B584004FF4B372284604F061F9284603F0D9FC5D
:10B59400374B6B604FF6FC72012328462B726A818D
:10B5A4002B7303F0FAFC0023039302238DF80E306F
:10B5B400304A032303A90B208DF80D30FDF70EFA52
:10B5C40008B1FAF7CBFF01210B20FDF77BFA4FF00E
:10B5D400C0620023CDE9042304A9274A2748FEF7C3
:10B5E400FDFA08B1FAF7BAFF254B1F48D3F81055F6
:10B5F400244E254F03F005FD244A20480123EDB2D3
:10B604000093EA400021FEF778FB1C48FEF74EFB4E
:10B61400B04630BF3378CBB1DFF874900025D7E95A
:10B624000032D21AB5EBA20F0DD203EB8503D3ED92
:10B63400007AFCEEE77A494617EE902A2046FEF798
:10B644004FFF0135EBE7002388F80030FEF7DAFD01
:10B654000028FBD1DDE700BFECFA0200ACFA0200DF
:10B66400DB2603003DB30200B839002088390020EE
:10B6740000050001D9B3020045B30200BC26030053
:10B6840000800040C8360020AC3900200024F400BB
:10B694005A30030008B50949094803F00FFE094868
:10B6A400094A0A490023C0E90033836003F0BCFF60
:10B6B4000748BDE8084003F043BC00BFC4260300AC
:10B6C40088390020AC3900202C420020B1B302009C
:10B6D400B83900200369C1688B429DBF8268D218C3
:10B6E40002F1FF3203F1FF3394BF501A581A704726
:10B6F4002DE9F041D0E9027405463E1B40689642AC
:10B7040020448846144404D904F0A0F8EC60BDE851
:10B71400F0813246E41B04F099F8224608EB060156
:10B724006868F1E72DE9F843C56806468946174677
:10B734004FF000083469B3687068A54228BFE41864
:10B74400013C621B5C1BBC4228BF3C46944228BFA0
:10B75400144649462844224604F078F8B368254440
:10B76400AB4208BF00253F1BA044A144F560E1D1D2
:10B774004046BDE8F883000010B5114C114AA2619F
:10B784000223C4E90433104BE361A2644FF4007351
:10B794000E4A2362E264002310220D49A362E01DD5
:10B7A4006362E362A3656365E365226504F0AAF856
:10B7B4000849204604F0A6F82023A37110BD00BF59
:10B7C400203B0020EE260300A83B0020983B0020ED
:10B7D400F7260300FB260300F8B5184C182300FBDA
:10B7E400033503FB00402544C46A012C0F4616466A
:10B7F40011D024B1022C1BD000242046F8BD2846C9
:10B80400FFF768FFB042F8D3324639462846FFF7BF
:10B814006FFF3446F1E72846FFF75CFF8642344663
:10B8240028BF0446224639462846FFF761FFE4E76D
:10B834002846BDE8F840FFF775BF00BF203B002055
:10B8440073B50E4B1B7804460D4616460BB9FFF72D
:10B8540093FF00230DF107008DF80730FBF734F94F
:10B86400324629462046FFF7B7FF04469DF80700F5
:10B87400FBF74EF9204602B070BD00BF203B00200C
:10B8840038B5054608460C4604F05EF821460246E3
:10B894002846BDE83840FFF7D3BFFFF76DBF014628
:10B8A4000020FFF7EDBF00000C4B1B78062B10D1D6
:10B8B4000B4B1B681A070CD10A4B186800F0F003F5
:10B8C400302B08D000F0E000A0F14003584258416A
:10B8D4007047002070470120704700BFE00F00F060
:10B8E400E40F00F0E80F00F0094B1B78062B0CD195
:10B8F400084B1B681A0708D1074B186800F0F000C2
:10B90400A0F130035842584170470020704700BFEF
:10B91400E00F00F0E40F00F0E80F00F008B5FFF7C7
:10B92400C3FF28B17D4B7E4A1B68C3F30423136015
:10B93400FFF7DAFF10B17B4B7B4A1A60FFF7B4FFC5
:10B9440028B17A4B7A4A1B68C3F342331360FFF77A
:10B95400CBFF20B1774AD36823F08073D360FFF71D
:10B96400A3FF40B14FF080430022C3F80C21C3F879
:10B974001021C3F83825FFF7B7FF10B16E4B03222F
:10B984001A60FFF7B1FF40B16C4B05221A60012227
:10B994009A6700229A603F225A60694B1B78062BF3
:10B9A40050D1684B1B6819074CD1674B1B6803F0D7
:10B9B400F003502B46D14FF08052644BD2F804145C
:10B9C400C3F82015D2F80814C3F82415D2F80C14BF
:10B9D400C3F82815D2F81014C3F82C15D2F814148F
:10B9E400C3F83015D2F81814C3F83415D2F81C145F
:10B9F400C3F84015D2F82014C3F84415D2F824141F
:10BA0400C3F84815D2F82814C3F84C15D2F82C14EE
:10BA1400C3F85015D2F83014C3F85415D2F83414BE
:10BA2400C3F86015D2F83814C3F86415D2F83C147E
:10BA3400C3F86815D2F84014C3F86C15D2F844243E
:10BA4400C3F87025FFF730FF28B1414B414A1B680A
:10BA540003F04F031360FFF727FF48B14FF0804313
:10BA6400D3F80024D20744BF6FF00102C3F80024C6
:10BA7400394B1B68062B08D1384B1B68062B01BFBA
:10BA8400374A136843F480631360364AD2F8883027
:10BA940043F47003C2F88830BFF34F8FBFF36F8F46
:10BAA4004FF01023D3F80022002A03DBD3F804322A
:10BAB400002B2FDA2C4B0122C3F80425D3F80024E1
:10BAC400002AFBD04FF010221521C2F80012D3F83F
