:020000022000DC
:1060000000000120756302005D6302005F6302000F
:106010006163020063630200656302000000000028
:1060200000000000000000000000000067630200A4
:1060300069630200000000006B6302006D630200F0
:1060400041D002006F63020069DD02000DFC020016
:106050006F630200B10E030089DA02006F63020071
:106060003D0303006F6302006F6302006F63020071
:106070006F63020085E102006F6302006F6302003C
:106080006F630200658002006F6302006F630200AD
:10609000A58002006F630200950A04006F6302008E
:1060A0006F6302006F6302006F6302005503030019
:1060B0006F6302006F630200000000000000000038
:1060C0006F6302006F6302006F6302006F63020080
:1060D0006F6302006F6302006F6302000000000044
:1060E00000000000000000000000000000000000B0
:1060F00000000000000000000000000000000000A0
:10610000000000000000000000000000000000008F
:10611000000000000000000000000000000000007F
:10612000000000000000000000000000000000006F
:10613000000000000000000000000000000000005F
:10614000000000000000000000000000000000004F
:10615000000000000000000000000000000000003F
:10616000000000000000000000000000000000002F
:10617000000000000000000000000000000000001F
:10618000000000000000000000000000000000000F
:1061900000000000000000000000000000000000FF
:1061A00000000000000000000000000000000000EF
:1061B00000000000000000000000000000000000DF
:1061C00000000000000000000000000000000000CF
:1061D00000000000000000000000000000000000BF
:1061E00000000000000000000000000000000000AF
:1061F000000000000000000000000000000000009F
:10620000354936480A1A02D0072291438D4634494F
:1062100034480A1A06D00722914381F309880222E2
:1062200082F3148830483149314A00F044F831484B
:106230003149324A00F03FF831483249324A00F0E1
:106240003AF832483249334A00F035F83248334997
:10625000334A00F030F833483349344A00F02BF821
:1062600033483449344A00F026F83448344900228F
:1062700000F02CF833483449002200F027F8334866
:106280003349091A082902DB002202604160314AC1
:1062900090471F481F49884205D00268043003B464
:1062A000904703BCF7E700208646EC46002000211B
:1062B000294A9047FEE7884207D0521A05D0037852
:1062C00001300B700131013AF9D17047884202D098
:1062D00002700130FAE770470000012000E0002062
:1062E000000001200000012088CC0400AC2B00201D
:1062F000C82C0020D4630200D463020004550400BB
:1063000088CC0400AC2B0020AC2B002000570400EC
:106310000057040000570400005704000057040011
:1063200000570400005704000057040088CC040004
:10633000A4CD0400C82C0020C82C0020C82C0020AC
:106340001C4800201C4800201C4800201C4800203D
:106350001C6800209D630200355A0300FEE7FEE73B
:10636000FEE7FEE7FEE7FEE7FEE7FEE7FEE7FEE705
:10637000704700BF1048804710484FF0070188431E
:1063800085460F4880470F48016841F4700101605D
:10639000BFF34F8FBFF36F8FFFF732BF0A480B4930
:1063A0000B4A884207D0521A05D0037801300B708F
:1063B0000131013AF9D170477163020000000120F8
:1063C000315E030088ED00E0EC560400982B0020BD
:0463D000AC2B0020D2
:1063D40000B583B00190019B1B681F2B04D90549AC
:1063E4004FF4F3700EF0D2FA4FF0A043184603B006
:1063F4005DF804FB0057040000B585B001900B461E
:106404008DF8033001AB1846FFF7E2FF0390019AC1
:10641400039B02F5E07253F82230019A23F44031D1
:10642400039B02F5E07243F82210019A039B02F5E4
:10643400E07253F822309DF8032012041146019AA9
:106444001943039B02F5E07243F8221000BF05B024
:106454005DF804FB00B583B00190019B032B04D8C5
:1064640001980BF025F8034600E00023184603B01A
:106474005DF804FB00B587B003460A468DF8073083
:1064840013468DF8063000238DF81730002304934B
:106494009DF8073018460BF053F80490049B032B27
:1064A40060D89DF80630012B04D0022B4FD0002B6E
:1064B40030D05AE03649049A13465B0013440B4427
:1064C4001B788DF817303249049A13465B00134445
:1064D4000B4401331B78002B0ED02E4B2E4A4FF465
:1064E4000041184601F046FE0390039B002B03D1A4
:1064F400294A9DF8073013702549049A13465B0016
:1065040013440B4402331978244A049B13440A4667
:106514001A702AE01F4B184601F05EFE1F4A049BC6
:10652400134419781A48049A13465B00134403442D
:1065340002331B78994217D11549049A13465B001C
:1065440013440B4402331B788DF817300CE01049C8
:10655400049A13465B0013440B4401331B788DF8F3
:10656400173002E000BF00E000BF9DF81730002B99
:1065740009D00B4B1B68002B05D0094B1B689DF8F9
:1065840017201046984700BF07B05DF804FB00BF12
:10659400182D0020242D0020442D0020482D0020FB
:1065A400142D002000B583B00190019B1B780221BB
:1065B4001846FFF75FFF00BF03B05DF804FB00005F
:1065C40000B583B00C4B1B78002B0FD00023019334
:1065D40008E0019B022B02D001980AF0F7FE019B10
:1065E40001330193019B032BF3D901E00AF008FF67
:1065F40000BF03B05DF804FBD02C00202DE9F04768
:1066040088B003468DF817300023079300230693C0
:10661400D04B1B78002B04D0CE4B00221A70FFF70E
:10662400CFFF9DF81730172B00F2268201A252F8F3
:1066340023F000BF99660200B1660200B166020051
:1066440041670200D167020043680200CD6802007E
:10665400ED680200FD6802001B690200396902004E
:106664006569020083690200916902009169020070
:106674009169020091690200916902001F6A020097
:106684002D6A0200416A0200556A02006F6A020024
:106694006F6A0200FFF794FFAF4B184601F09CFDB0
:1066A4000790AE4A9DF817301370E6E100200AF017
:1066B40045FE0346002B0DD000200AF087FE9DF80E
:1066C4001730022B02D14FF4E16301E04FF47A63F7
:1066D40006930BE000200AF05FFE9DF81730022BB2
:1066E40001D1C82301E04FF4C87306939B4A9DF877
:1066F40017301370984D069B19464FF000024FF067
:1067040000034FF00004D40344EA5144CB0313F5CF
:10671400FA72009244F1000301934FF47A724FF03D
:106724000003DDE900011BF067FC03460C46002270
:106734001946284601F01EFD07909EE100200AF04C
:10674400FDFD0346002B0DD000200AF03FFE9DF80E
:106754001730032B02D14FF4487301E04FF47A63EE
:1067640006930BE000200AF017FE9DF81730032B68
:1067740001D1C82301E04FF4C8730693774A9DF80A
:1067840017301370744D069B19464FF000024FF0FA
:1067940000034FF00004D40344EA5144CB0313F53F
:1067A400FA72029244F1000303934FF47A724FF0A9
:1067B4000003DDE902011BF01FFC03460C46002226
:1067C4001946284601F0D6FC079056E100200AF04D
:1067D400B5FD0346002B06D000200AF0F7FD4FF468
:1067E4007A63069305E000200AF0D6FD4FF4C873DF
:1067F40006935A4A9DF817301370574D069B194655
:106804004FF000024FF000034FF00004D40344EAB9
:106814005144CB0313F5FA7944F1000A4FF47A7228
:106824004FF00003484651461BF0E6FB03460C4676
:1068340000221946284601F09DFC07901DE1002026
:106844000AF07CFD0346002B0CD000200AF0BEFDAC
:106854009DF81730052B01D1C82301E04FF47A636A
:1068640006930BE000200AF097FD9DF81730052BE6
:1068740001D1C82301E04FF4C8730693374A9DF849
:1068840017301370344D069B19464FF000024FF039
:1068940000034FF00004D40344EA5144CB0313F53E
:1068A400FA7744F100084FF47A724FF00003384647
:1068B40041461BF0A1FB03460C460022194628461C
:1068C40001F058FC0790D8E000200AF0BDFD234AEF
:1068D4009DF817301370204B002240F6CD41184626
:1068E40001F048FC0790C8E000200AF055FD1B4A5F
:1068F4009DF817301370C0E0164B01221A70012066
:106904000AF0A2FD144B002240F6CD41184601F0D6
:1069140031FC0790B1E00F4B01221A7001200AF0FC
:1069240093FD0D4B00224FF48041184601F022FCE8
:106934000790A2E0074B01221A7001200AF084FD9F
:10694400054B002240F6CD41184601F013FC079098
:1069540093E000BFC92C0020D42C0020C82C0020B8
:10696400484B01221A7001200AF06EFD464B0022AA
:106974004FF48041184601F0FDFB07907DE00AF0DA
:1069840051FD424A9DF81730137076E0404B18468B
:1069940001F022FC07909DF81730C3F11103069310
:1069A400069B002B32D0079B002B2FD1069B012B7B
:1069B40025D9374F069B9BB21A46C82303FB02F323
:1069C40019464FEAE1724FF000034FF00004D4037C
:1069D40044EA5144CB0313F5FA7544F100064FF42D
:1069E4007A724FF00003284631461BF005FB03463C
:1069F4000C4600221946384601F0BCFB07900220E1
:106A04000AF0CAFC234B01221A7036E002200AF075
:106A1400DDFC204B00221A702FE0FFF7D1FD1B4A4A
:106A24009DF81730137028E0FFF7CAFD00200AF024
:106A3400B3FC164A9DF8173013701EE0FFF7C0FD33
:106A440001200AF0A9FC114A9DF81730137014E0D4
:106A5400FFF7B6FD00200AF09FFC01200AF09CFC21
:106A64000A4A9DF81730137007E00AF0DBFC074A66
:106A74009DF81730137000E000BF079B184608B05C
:106A8400BDE8F087C92C0020D42C0020C82C00209D
:106A9400F42C0020D02C002000B583B00190074BCB
:106AA4001B6803F00103002B04D0054B1B78184628
:106AB400FFF7A4FD00BF03B05DF804FBCC2C00205D
:106AC400C82C002000B583B0019002200AF0BCFC61
:106AD40000BF03B05DF804FB00B585B003468DF834
:106AE400073000230393084B1B6803F00103002BBA
:106AF40005D09DF807301846FFF780FD0390039BEF
:106B0400184605B05DF804FBCC2C002000B585B018
:106B140001900091002303932A4A019B13602A4A9F
:106B2400009B1360019B03F00203002B2AD0002377
:106B3400029308E001220121029800F055F8039025
:106B4400029B01330293029B032B02D8039B002B6D
:106B5400F0D0039B002B06D140F2666204211B484F
:106B640000F0D6FB0390039B002B02D100F046FCFF
:106B74000390039B002B05D1154A0021154801F011
:106B8400C9FA0390019B03F00103002B14D00120E8
:106B94000AF00CFD039B002B05D10F4A00210F487E
:106BA40001F0B8FA0390039B002B05D10C4A012194
:106BB4000C4801F0AFFA0390039B184605B05DF84A
:106BC40004FB00BFCC2C0020142D002038570400F7
:106BD400A9650200345704009D6A02002C57040082
:106BE400C96A02003057040084B001900B468DF846
:106BF400033013468DF8023000230393019B032BCB
:106C04003CD89DF80230012B0BD19DF80330012BA9
:106C140004D1019BDBB20E33DBB200E000238DF81C
:106C240002309DF80330012B04D0022B0CD0002B32
:106C340015D01FE01449019A13465B0013440B441A
:106C44009DF802201A701BE00F49019A13465B005D
:106C540013440B4401339DF802201A7010E00A49D2
:106C6400019A13465B0013440B4402339DF802203F
:106C74001A7005E00723039300BF01E00723039381
:106C8400039B184604B07047182D002000B585B04A
:106C940001900B468DF80330019B032B14D89DF80B
:106CA4000330002B01D0032300E000238DF80F30C4
:106CB40001980AF065FC02469DF80F30194610460B
:106CC400FFF79AFB002300E00623184605B05DF8A1
:106CD40004FB00B583B0019001210198FFF7D6FFB2
:106CE4000346184603B05DF804FB00B583B00122E7
:106CF40000210020FFF778FF0190019B002B04D0B6
:106D0400019B072B01D0019B1CE0072202210120DB
:106D1400FFF76AFF0190019B002B04D0019B072B16
:106D240001D0019B0EE0042202210020FFF75CFF4A
:106D34000190019B002B04D0019B072B01D0019BE8
:106D440000E00023184603B05DF804FB00B583B0EF
:106D5400012202210020FFF747FF0190019B002B35
:106D640004D0019B072B01D0019B1CE007220221C8
:106D74000120FFF739FF0190019B002B04D0019BF8
:106D8400072B01D0019B0EE00A2200210020FFF70F
:106D94002BFF0190019B002B04D0019B072B01D0FA
:106DA400019B00E00023184603B05DF804FB00B526
:106DB40083B001900120FFF74DFB0346002B03D065
:106DC400019B02221A700CE00020FFF743FB0346EC
:106DD400002B03D0019B0B221A7002E0019B0022BE
:106DE4001A7000BF03B05DF804FB00B583B0002047
:106DF400FFF76FFF0190019B002B04D0019B062B32
:106E040001D0019B0CE00120FFF763FF0190019B7F
:106E1400002B04D0019B062B01D0019B00E0002332
:106E2400184603B05DF804FB00B585B001900091ED
:106E3400019B1B88102B02D0112B18D02FE01A4B6A
:106E44001B68002B0DD1FFF750FF0390039B002B11
:106E540007D0164B1B68002B03D0144B1B680398F8
:106E64009847114B1B6801330F4A136017E00E4B10
:106E74001B68013B0C4A13600B4B1B68002B0DD1A4
:106E8400FFF764FF0390039B002B07D0074B1B689D
:106E9400002B03D0054B1B680398984700BF00BF25
:106EA40005B05DF804FB00BF502D00204C2D0020E0
:106EB40000B585B001900091002303930A4A019B19
:106EC4001360009B002B02D00098FFF770FF074B64
:106ED4001B68002B02D1FFF739FF0390039B184670
:106EE40005B05DF804FB00BF4C2D0020502D0020A0
:106EF40000B583B0002100200DF028FC0190019B17
:106F0400184603B05DF804FB00B583B00DF098FC9F
:106F14000190019B184603B05DF804FB84B0019016
:106F2400019B13F1360F0ED0019B002B04D0019B63
:106F340013F1380F03D00AE0002303930BE048F267
:106F44001153039307E048F21453039303E048F208
:106F54001653039300BF039B184604B0704700B553
:106F640085B00390029101920199029805F072FD97
:106F74000023184605B05DF804FB000000B589B095
:106F840003900291039B04330793002005F08AFCCD
:106F94000690069B002B01D0069B10E007980CF08E
:106FA40029FD0023009300230022074907980CF0D1
:106FB40066FD05900598FFF7B1FF0690069B1846FD
:106FC40009B05DF804FB00BF636F020000B585B033
:106FD4000190019B0433039303980CF065FD05F0C5
:106FE400A7FC0023184605B05DF804FB00B587B084
:106FF4000390029101928DF80330039B04330593AF
:10700400019A029905980CF0A1FF04900498FFF7E7
:1070140085FF0346184607B05DF804FB00B587B04A
:107024000390029101920093039B04330593009A09
:10703400019905980CF099FE04900498FFF76EFFEF
:107044000346184607B05DF804FB00002DE9F0473D
:1070540092B0099000238DF84730ADE05C4B1A687C
:107064009DF84730DB0013441093109B1B7818469F
:107074004FF001034FF00004A0F12002C0F1200101
:1070840004FA00FA03FA02F24AEA020A23FA01F1C4
:107094004AEA010A03FA00F9CDE90E9A4D4BD3E905
:1070A4000012DDE90E3401EA0300009002EA040351
:1070B4000193DDE90034234379D0DDE90E34DA436A
:1070C4000292E3430393434BD3E90034DDE9020125
:1070D40002461A4004920A4602EA040305933D4B11
:1070E400DDE90412C3E90012109B1B78184606F070
:1070F400AFFC03468DF83730109B1B7818464FF0D1
:1071040001034FF00004A0F12002C0F1200104FAB1
:1071140000F603FA02F2164323FA01F10E4303FACE
:1071240000F52D4BD3E9003405EA0302069206EA82
:10713400040307939DF837104FF00002109B1B784F
:107144001C46A4F12003C4F1200002FA04F801FA59
:1071540003F348EA030821FA00F048EA000801FAB8
:1071640004F7DDE90634444508BFBB421FD19DF84E
:107174003720109B5B78012B0CBF01230023DBB26B
:107184009A420CBF01230023DBB2DBB24FF00004B0
:10719400CDE90A34109B5B68002B08D0109B5C6817
:1071A400109B1A789DF8283019461046A0479DF880
:1071B400473001338DF84730084B1A789DF8473033
:1071C4009342FFF44BAF00BF12B0BDE8F08700BF9D
:1071D400542D0020882D0020802D0020582D0020C3
:1071E4002DE9F04790B00B900B468DF82B304FF003
:1071F40001034FF000040B98A0F12002C0F120011C
:1072040004FA00F603FA02F2164323FA01F10E43DC
:1072140003FA00F5CDE90E56394B184600F0DCFFB1
:107224000D900D9B002B66D1364BD3E90012DDE99E
:107234000E3401EA0300009002EA04030193DDE93D
:107244000034234343D10B9806F002FC0346002B81
:1072540010D02D4BD3E90012DDE90E3441EA0300CE
:10726400029042EA04030393274BDDE90212C3E9C7
:10727400001213E0DDE90E346FEA03096FEA040A31
:10728400214BD3E9003409EA030204920AEA040315
:1072940005931D4BDDE90412C3E90012194BD3E930
:1072A4000012DDE90E3441EA0300069042EA0403C9
:1072B4000793144BDDE90612C3E900121048134B7F
:1072C4001B680022194600F055FF0D9014E0DDE91B
:1072D4000E34DF436FEA04080A4BD3E9003407EAAB
:1072E4000302089208EA04030993064BDDE9081235
:1072F400C3E9001200E000BF10B0BDE8F08700BF92
:10730400602D0020882D0020802D00205C2D002081
:1073140010B58AB003900B4601928DF80B30019B97
:10732400042B01D8072356E006F084FA034683F0C1
:107334000103DBB2002B09D006F02AFA0990099B5D
:107344000893089B002B01D0089B44E0234A039B2D
:107354001360234A9DF80B301370224A019B13607B
:10736400214A4FF000034FF00004C2E900341F4AE1
:107374004FF000034FF00004C2E900341EE09DF812
:107384000B30DB00039A1344079300230593032374
:107394008DF81630079B9B788DF81530079B1B786A
:1073A400184605AB124A194606F050FA0990099B93
:1073B4000693069B002B01D0069B0CE09DF80B3036
:1073C4005A1E8DF80B20002BD9D10A4A00210A48F5
:1073D40000F0A0FE034618460AB010BD542D00204C
:1073E400582D00205C2D0020802D0020882D0020A9
:1073F400E5710200517002005857040000B583B0D3
:10740400114B1B68002B03D11049BA200DF0BEFAB2
:10741400002301930CE00C4B1A68019BDB0013441E
:107424001B780121184606F08BFA019B0133019366
:10743400074B1B781A46019B9342ECD30023184652
:1074440003B05DF804FB00BF542D00205C5704001A
:10745400582D002086B003900291019201238DF8EB
:1074640017309DF81730204A039B13601E4A029B75
:1074740053601D4A019B9360039B44F201029342B3
:1074840013D0039B44F20202934221D1019B164A7A
:10749400D360154BDB681B881A46134B9A61124B59
:1074A400DB685B68104AD36112E0019B0E4A1361EA
:1074B4000D4B1B699B680C4A53610B4B1B691B6882
:1074C400094A9361084B1B695B68074AD36100BF93
:1074D40072B600BF9DF81730DBB2002BFAD162B64A
:1074E40000BF06B0704700BF902D002000B583B0E8
:1074F40002900091019244F2010071466A4600F044
:1075040003F803B000BD00BF30B58BB007900691FF
:10751400059272B60BF0C6F800BF0AF085FE03466A
:10752400002BFAD1079B41F2010293421FD0079B23
:1075340041F20102934203D8079B012B0BD061E077
:10754400079B44F2010293422FD0079B44F20202AC
:10755400934218D056E0394A394BD31ADB081B043E
:1075640043F00103374918460AF0D4FD57E0334A83
:10757400334BD31ADB081B0443F00103324918468A
:107584000AF0C8FD4BE0059B09932C4A2C4BD31AF7
:10759400DB081B0443F00100099B5B681A46099B46
:1075A4001B882A490AF0D5FD39E0059B0893234A34
:1075B400234BD31ADB081B0443F00104089B9D688A
:1075C400089B9B68184604F069FE03461846089B0E
:1075D4005B681946089B1B68069A02920193009106
:1075E40003462A461A4920460AF0F5FD134A144B6D
:1075F400D31ADB081B0443F00103164918460AF0AA
:1076040089FD0CE00D4A0E4BD31ADB081B0443F032
:107614000103069A104918460AF08AFD00BF0F4B71
:107624001B6803F00103002B00D000BE059A0699E5
:107634000798FFF70FFF00BF0BB030BD1C560400C6
:10764400D4550400D8570400F85704001C5804000B
:10765400385804006058040074580400F0ED00E049
:1076640082B003468DF807309DF8073003F01F02FF
:1076740005499DF907305B09012000FA02F241F83F
:10768400232000BF02B0704700E100E082B003464F
:107694008DF807309DF8073003F01F0206499DF965
:1076A40007305B09012000FA02F2203341F823205D
:1076B40000BF02B0704700BF00E100E082B00346A3
:1076C4008DF807309DF8073003F01F0206499DF935
:1076D40007305B09012000FA02F2403341F823200D
:1076E40000BF02B0704700BF00E100E082B0034673
:1076F4008DF807309DF8073003F01F0206499DF905
:1077040007305B09012000FA02F2603341F82320BC
:1077140000BF02B0704700BF00E100E082B0034642
:1077240000918DF807309DF90730002B0CDA009B8F
:10773400DAB20C499DF8073003F00F03043B520101
:10774400D2B20B441A7609E0009BDAB206499DF9DD
:1077540007305201D2B20B4483F8002300BF02B0B9
:10776400704700BF00ED00E000E100E000B585B027
:107774000190019B002B0AD0074B43F001030393B4
:10778400019B9B010293039B0298984700E000BF72
:1077940005B05DF804FB00BF9058040000B583B049
:1077A4000190064A019BC2F8083506211120FFF713
:1077B400B5FF00BF03B05DF804FB00BF001001403B
:1077C40008B50D4B4FF48032C3F844230A4B4FF4F1
:1077D4008032C3F804231120FFF788FF1120FFF73C
:1077E4003FFF054B01221A602F20FFF7BFFF034B19
:1077F40001221A7000BF08BD00100140CE2E0020E7
:1078040008B51120FFF742FF0E4B4FF48032C3F846
:1078140048230C4B4FF48032C3F80823094B012250
:107824005A602F20FFF7A2FF064B01229A60064BF5
:1078340000221A602F20FFF799FF044B00221A70D0
:1078440000BF08BD00100140C02E0020CE2E002035
:10785400024BD3F804351846704700BF00100140AE
:1078640082B001900091019A009BD31A23F07F43C8
:10787400184602B07047000082B00190034A019B91
:10788400C2F8403500BF02B0704700BF001001408D
:1078940086B00190284B1B68002B03D1264A019B1C
:1078A400136045E0019B1A68234B1B681B689A42CE
:1078B40010D8214B1B681968019B1A681E4B1B6862
:1078C4008A1A1A601C4B1A68019BDA611A4A019BD6
:1078D40013602DE0019B1B680393174B1B680593F2
:1078E400154B1B68049309E0049B1B68039AD31A85
:1078F4000393049B0593049BDB690493049B002B73
:1079040004D0049B1B68039A9A42EDD8049B002B75
:1079140005D0049B1A68039BD21A049B1A60019B2E
:10792400039A1A60019B049ADA61059B019ADA6151
:1079340000BF06B0704700BFBC2E002000B587B062
:1079440001902A4B1B680393284B1B680593059BE6
:10795400049308E0049A019B9A4208D0049B05937F
:10796400049BDB690493049B002BF3D100E000BF6C
:10797400049B002B01D1002333E0059A049B9A4217
:1079840014D11A4B1B68DB69184A1360174B1B6828
:10799400002B0BD1164B01229A60164B00221A6061
:1079A400154B01221A702F20FFF7E0FE049B1B6881
:1079B4000293049BDA69059BDA61059BDB690493F6
:1079C400049B002B05D0049B1A68029B1A44049B59
:1079D4001A60064B1B68039A9A4214BF01230023C2
:1079E400DBB2184607B05DF804FB00BFBC2E0020D4
:1079F40000100140C02E0020CF2E002008B5112019
:107A0400FFF75CFE00BF08BD08B51420FFF756FE63
:107A140000BF08BD00B583B00190019B5B69019A6A
:107A240092691046984700BF03B05DF804FB00005C
:107A340000B585B02B4B1B68002B4ED0002301935F
:107A4400FFF706FF0246284B1B6819461046FFF74E
:107A540007FF0290234B1B6803931DE0039B1B68E5
:107A6400029A9A421CD3039B1B68029AD31A02936C
:107A7400039B1B68019A13440193039B0093039B8C
:107A8400DB690393009B1B7C002B05D0009B002229
:107A94001A740098FFF7BEFF039B002BDED100E0B1
:107AA40000BF124B1A78124B1B789A420CD1104B20
:107AB4001B780133DAB20E4B1A700D4B1B78022B74
:107AC40002D10B4B00221A70094B1B781946094A44
:107AD400019B42F82130FFF797FF00BF05B05DF826
:107AE40004FB00BFBC2E0020C02E0020CC2E0020A2
:107AF400CD2E0020C42E002082B00190184B1A789D
:107B0400184B1B789A4223D0154B1B780133DAB2F9
:107B1400134B1A70124B1B78022B02D1104B00220C
:107B24001A700F4B1B781A460F4B53F82220019BF7
:107B34001A60019B1A680D4B1B6813440B4A1360AF
:107B44000A4B1B6823F07F43084A1360012303E0B8
:107B5400019B00221A600023184602B0704700BF40
:107B6400CC2E0020CD2E0020C42E0020C02E0020BC
:107B740088B00390029101920023079338E0204BD0
:107B84001B680693069B1B68039A9A4206D2069BBF
:107B94001A68039BD21A069B1A602DE0069B1B6889
:107BA400039AD31A0393069B1B68079A13440793FB
:107BB400069B00221A60124B1B680593069BDB6927
:107BC4000F4A1360069BDB68002B11D0029A079BB7
:107BD400134423F07F42069B5A60069BDA68069B97
:107BE4009A60019B1A68069BDA61019B059A1A60E8
:107BF400034B1B68002BC2D100BF08B0704700BF05
:107C0400BC2E002000B589B0019000238DF81F30F0
:107C1400664B1B680593AAE0019B002B05D0019BD2
:107C24000693069BDB69019361E0614B1B781A465E
:107C340013465B001344DB005D4A1344043304938E
:107C44005B4B1B780133DAB2594B1A70584B1A78D4
:107C5400574B9B789A4202D1554B00221A70049BD1
:107C64005B680693049B1B78022B04D0032B1BD068
:107C7400012B1FD01DE0049B5B681846FFF75EFED6
:107C84000346002B02D001238DF81F30069B0022EF
:107C94001A746CE0454B1B680393039B00221A740F
:107CA400039BDB69414A1360404B1B68002BF1D1F5
:107CB4005DE05CE000BF069B1B7C002B00D056E01F
:107CC400049B9A68069B5A60049BDA68069B9A6038
:107CD400049B1A69069BDA60049B5A69069B9A61A5
:107CE400344B1B78002B02D0069B00225A60069B63
:107CF4005A68314B1B68D31A23F07F432F4A9342AF
:107D04000ED8069B5A682C4B1B6819461046FFF781
:107D1400A7FD0246069B9B681A44069B1A6017E05F
:107D2400254B1A68069B5B6819461046FFF798FDB9
:107D34000290069B9B68029A9A4206D2069B9A6816
:107D4400029BD21A069B1A6002E0069B00221A606C
:107D5400069B00225A60069B00229A60069B012221
:107D64001A74069B0022DA610698FFF791FD019BC5
:107D7400002B7FF451AF0E4B1A780D4B5B789A426F
:107D84007FF44AAF9DF81F30002B04D1074B1B68CA
:107D9400059A9A4201D0012300E0002303F0010375
:107DA400DBB2184609B05DF804FB00BFBC2E00200E
:107DB400B02D0020CF2E0020C02E0020FEFF7F001B
:107DC40010B588B00190274B1B68002B44D0254B7D
:107DD4001B681B680793FFF73BFD0690224B1B684B
:107DE400059305990698FFF73BFD03460333049377
:107DF4001E4B1B7883F00103DBB2002B01D0FFF78D
:107E0400DFFC049A079B934238BF1346059A134438
:107E14000593059B23F07F4305930598FFF72CFDFD
:107E2400FFF716FD039006990398FFF719FD034623
:107E3400DC1C06990598FFF713FD03469C420DD9F7
:107E4400FFF706FD03461846FFF716FD2F20FFF740
:107E54008DFCFFF7D3FD01E0FFF7D2FC00BF08B0B3
:107E640010BD00BFBC2E0020C02E0020CE2E00204E
:107E740000B587B00023019300238DF81730194B08
:107E84001B680493184B1B6803936B461846FFF753
:107E940033FE03468DF80B309DF80B30002B08D0D1
:107EA400009B01AA04991846FFF762FE01238DF88E
:107EB4001730019B1846FFF7A5FE0346002B02D09E
:107EC40001238DF817309DF81730002B02D003984A
:107ED400FFF776FF054B00221A7000BF07B05DF86C
:107EE40004FB00BFC02E0020BC2E0020CF2E00209B
:107EF40082B003468DF80730034A9DF8073053706B
:107F040000BF02B0704700BFB02D002084B00190C4
:107F1400144B5B7801338DF80F30124B9B789DF82E
:107F24000F209A4202D100238DF80F300D4B1B789D
:107F34009DF80F209A4201D100230FE0019B9DF888
:107F44000F201A70074B5B781A4613465B001344E4
:107F5400DB00044A134404330293029B184604B022
:107F6400704700BFB02D002000B589B00390029186
:107F7400019200930023079300238DF816300DF12E
:107F84001603184600F0D0F90DF117031846FFF751
:107F9400BDFF0690069B002B02D10423079318E033
:107FA400069B01221A70069B039A5A60FFF750FC45
:107FB4000246069B9A60069B029ADA60069B019A27
:107FC4001A61069B009A5A619DF817301846FFF70C
:107FD4008FFF9DF81630184600F0BCF9079B002B64
:107FE40001D1FFF711FD079B184609B05DF804FBAA
:107FF40000B587B001900B468DF80330002305933C
:1080040000238DF80E300DF10E03184600F08CF9A4
:108014000DF10F031846FFF779FF0490049B002B22
:1080240002D1042305930BE0049B9DF803201A70EE
:10803400049B019A5A609DF80F301846FFF758FFC9
:108044009DF80E30184600F085F9059B002B01D1F0
:10805400FFF7DAFC059B184607B05DF804FB000047
:1080640008B50E4B0022C3F840210C4B0022C3F884
:1080740044210A4B0022C3F84821084B0022C3F8CC
:108084004C21064B0022C3F80021044B0022C3F804
:108094000421FFF7CDFC00BF08BD00BF0010014064
:1080A40008B5FFF7E5FE00BF08BD000008B5FFF7FF
:1080B400A7FB134B00221A70114B00225A70104B6D
:1080C4000B229A700F4B00221A600F4B00221A7079
:1080D4000E4B00221A701420FFF708FB062114200F
:1080E400FFF71CFB1420FFF7BBFA0020FFF756FB39
:1080F400FFF7AEFB0246064B1A600023184608BD84
:10810400B02D0020BC2E0020CC2E0020CD2E00202F
:10811400C02E002086B003900B4601928DF80B30E0
:10812400134B9B78002B01D108231EE0019B002BED
:1081340001D1072319E0039B002B01D1072314E08D
:10814400039B1B681B7C002B01D008230DE0039BC1
:108154001B680593059B00221A74059B9DF80B2050
:108164005A74059B019A5A610023184606B0704759
:10817400B02D002000B587B0039002910192039BBB
:108184000593144B9B78002B01D108231EE0039B1D
:10819400002B01D1082319E0029B042B01D80723EB
:1081A40014E0059B5B69002B01D108230EE0059BBD
:1081B4005B7C012B01D1029B00E000230493019B13
:1081C400049A02990598FFF7CFFE0346184607B0B4
:1081D4005DF804FBB02D002000B585B00190019B33
:1081E40003930D4B9B78002B01D1082310E0019BD6
:1081F400002B03D0039B5B69002B01D1082307E00C
:10820400039B00221A7402210398FFF7F1FE034630
:10821400184605B05DF804FBB02D002008B5FFF743
:1082240017FB0346184608BD00B583B001900091C2
:1082340000990198FFF714FB0346184603B05DF854
:1082440004FB82B0EFF310830093009B019372B69A
:10825400019B184602B0704762B600BF7047000029
:1082640000B585B00190FFF7ECFF0390164B9B68B7
:10827400002B1BD1144B01229A60144BD3F880209D
:10828400134B1340104A1360104B114AC3F880205B
:108294000E4BD3F884300C4A53600C4B4FF0FF3232
:1082A400C3F88420019B00221A7002E0019B012282
:1082B4001A70039B002B01D1FFF7CEFF0023184651
:1082C40005B05DF804FB00BFD02E002000E100E003
:1082D400FC06FFBD00B585B003468DF80730104B92
:1082E4009B68002B16D09DF80730002B12D1FFF7A6
:1082F400A8FF03900B4A0A4B1B681360094A084BFA
:108304005B685360064B00229A60039B002B01D1EB
:10831400FFF7A2FF0023184605B05DF804FB00BF79
:10832400D02E002000E100E000B583B0019000F001
:108334002BF80346012B03D0054943200CF026FB00
:108344000198FFF78DFF00BF03B05DF804FB00BF89
:108354009858040000B583B003468DF8073000F048
:1083640013F80346012B03D0064951200CF00EFBF1
:108374009DF807301846FFF7ADFF00BF03B05DF866
:1083840004FB00BF9858040084B0EFF30583019305
:10839400019BC3F308030393039B002B0DD1EFF35D
:1083A40014830093009B0293029B03F00103002BB0
:1083B4000CBF01230023DBB200E00123184604B004
:1083C400704782B00190019B03F00303002B0CBFA4
:1083D40001230023DBB2184602B0704700B585B014
:1083E4000190002303930EE00A4A039B52F82330C2
:1083F400002B05D0074A039B52F823300198984775
:10840400039B01330393039B032BEDD900BF05B0FA
:108414005DF804FBEC2E002082B001900091019BDA
:108424001B78013B052B61D801A252F823F000BF51
:108434004D840200558402007B840200AD84020056
:10844400CD840200E9840200009B00221A704EE0F1
:10845400009B01221A70019B1A89009B9A81019B3F
:108464009A88009BDA81019BDA68009B9A60009BE2
:1084740000221A743BE0009B02221A70019B1A89A5
:10848400009B9A81019B9A88009BDA81019BDA68A0
:10849400009B9A60019B9B7D062B0CBF012300234C
:1084A400DAB2009B1A7422E0009B03221A70019B2B
:1084B400DA88009B9A81019B1A89009BDA81019BCF
:1084C400DA68009B9A6012E0009B04221A70019BF8
:1084D400DA88009B9A81009B0022DA81009B0022AB
:1084E4009A6004E0009B05221A7000E000BF00BF00
:1084F40002B0704784B001900091019B0393039AEA
:10850400009B9A4206D2039B1B68B3F1FF3F01D044
:10851400012300E0002303F00103DBB2184604B09A
:10852400704782B00190019B5B8803339B00019AE2
:108534001344184602B0704700B583B0019000910F
:108544000198FFF7EEFF0246009B934201D20223FB
:108554000CE0019B9B884FF6FF72934203D0019B72
:108564001B88002B01D1012300E00023184603B02F
:108574005DF804FB00B583B00190019B002B13D080
:108584000D4BDB681A46019B93420DD30A4B1B69C2
:108594001A46019B934207D80198FFF712FF03463E
:1085A400002B01D0012300E0002303F00103DBB220
:1085B400184603B05DF804FB982B002082B00190AC
:1085C400019B002B04D0019B1B680B4A934201D0F2
:1085D40003230DE0019B04331B68084A934204D033
:1085E400074A934203D1012302E0002300E003235E
:1085F400184602B0704700BFDEC0ADDEFE011EF1BA
:10860400FF011EF184B00190002303930CE0039B4F
:108614009B00019A13441B68B3F1FF3F01D0002370
:1086240007E0039B01330393039BB3F5806FEED301
:108634000123184604B0704782B003460A46ADF8D9
:1086440006301346ADF80430BDF80620134913462E
:108654009B0013449B000B4408331A88BDF8043074
:108664001344ADF80430BDF806200C4913469B00B2
:1086740013449B000B440A331A88BDF80430134496
:10868400ADF80430BDF8043040F2FF32934294BF99
:1086940001230023DBB2184602B070479C2F002050
:1086A40084B0019000910A2303930023ADF80A30AB
:1086B40027E0BDF80A20174913469B0013449B008A
:1086C4000B4404331B68009A9A4215D9BDF80A205A
:1086D400104913469B0013449B000B4404331B684E
:1086E40003F58053009A9A4206D200230393019B18
:1086F400BDF80A201A8008E0BDF80A300133ADF84D
:108704000A30BDF80A30012BD3D9039B184604B0B4
:10871400704700BF9C2F002000B589B003900291E0
:108724000192039B03F580530693039B0833039341
:10873400029B02221A80039B079332E00699079852
:10874400FFF7FAFE03468DF817309DF81730002B1B
:108754000AD1079B9A68184B1B689A4213D9079B46
:108764009B68154A13600EE0019B002B02D0019B0D
:1087740001221A709DF81730022B04D1029B4FF48A
:1087840080621A8014E0029B1A88079B5B8813445A
:108794009BB203339AB2029B1A800798FFF7C1FE7B
:1087A400079006990798FFF7A5FE0346002BC5D14D
:1087B40009B05DF804FB00BFFC2E002082B00190DC
:1087C4000091009B9B7D022B09D9019B1A89009B78
:1087D400DB8813449BB203339AB2019B1A81019B39
:1087E4005A89009BDB88D31A9BB2033B9AB2019B44
:1087F4005A8100BF02B0704700B583B0074B1B68B5
:108804001946002300930823054A064802F02AFC6F
:108814000346184603B05DF804FB00BFC42F0020D4
:1088240088590400982B002000B585B00390039963
:10883400002300930823044A044802F013FC03466F
:10884400184605B05DF804FB90590400982B0020ED
:1088540000B585B003460091ADF8063000238DF8CD
:108864000F30BDF806300333ADF80A30BDF80A30D6
:1088740040F2FD32934201D909234AE00023ADF8C6
:108884000C303BE0BDF80C20244913469B001344F4
:108894009B000B441B78002B2BD1BDF80A20BDF89C
:1088A4000C3011461846FFF7C7FE0346002B20D0B4
:1088B40001238DF80F30009BBDF80C201A80BDF801
:1088C4000C20164913469B0013449B000B440A33A7
:1088D4001988BDF80C20BDF80A300B4498B20F4932
:1088E40013469B0013449B000B440A3302461A8030
:1088F40008E0BDF80C300133ADF80C30BDF80C3095
:10890400012BBFD99DF80F30002B01D0002300E0CC
:108914000723184605B05DF804FB00BF9C2F002018
:1089240082B003460A46ADF806301346ADF804306B
:10893400BDF804200D4913469B0013449B000B44CF
:108944000A331A88BDF80630D31A9BB2BDF8042046
:10895400033B98B2054913469B0013449B000B4408
:108964000A3302461A8000BF02B070479C2F0020D1
:1089740008B50121024801F0A2FD0346184608BDCE
:10898400FC2E002000B585B003460091ADF80630FA
:10899400BDF80620224913469B0013449B000B4458
:1089A40004331B6803F580530293009B1B680393F5
:1089B400039B002B04D00398FFF7B3FD039023E03F
:1089C400BDF80620164913469B0013449B000B4434
:1089D40004331B680833039316E002990398FFF7E6
:1089E400ABFD0346012B08D0022B0BD0002B0BD17F
:1089F400009B039A1A6001230EE00398FFF791FD90
:108A0400039001E0002307E002990398FFF772FD49
:108A14000346002BE1D10023184605B05DF804FBA2
:108A24009C2F002000B585B001900091019B5B68EC
:108A34001846FFF79FFD0346002B19D0019B1A89A6
:108A4400244B1B899A4213D1019B1A68019B5B68D2
:108A54009B689A420CD1019B5B6819460098FFF70A
:108A64001FFE0346002B0CBF01230023DBB22CE0C6
:108A7400009B00221A8023E00023029310E0029B53
:108A84000393039B9A68019B1B689A4208D1029A3C
:108A9400019B5A600F4B1A89019B1A81012314E030
:108AA400009B1B8802AA11461846FFF76BFF03467A
:108AB400002BE4D1009B1B8801339AB2009B1A80DF
:108AC400009B1B88012BD7D90023184605B05DF8FD
:108AD40004FB00BFCC2F002000B587B003900291A7
:108AE40001920093304B1B78DBB283F00103DBB2BD
:108AF400002B01D0022353E0019B002B02D0009BEA
:108B0400002B48D105234BE0009B9B881946274A3C
:108B14000B469B000B449B0013441B78002B33D162
:108B240024E0009B1B680593039B002B06D0059B48
:108B34009A88039B1B889A4200D017E0029B002B63
:108B440006D0059B1A88029B1B889A4200D00DE030
:108B5400059B9A68019B1A60009B1A68019B5A60E6
:108B6400134B1A89019B1A81002319E0009B9B88EF
:108B7400009A11461846FFF705FF0346002BD0D193
:108B8400009B00221A6000E000BF009B9B88013319
:108B94009AB2009B9A80009B9B88012BB4D90A232C
:108BA400184607B05DF804FBDC2E00209C2F002043
:108BB400CC2F002000B585B00190084B01991846D0
:108BC40001F0DBFA03901C220021039819F05AFBF0
:108BD400039B184605B05DF804FB00BF8C2F0020F2
:108BE40000B583B00190044B0199184601F0DEFAF8
:108BF40000BF03B05DF804FB8C2F002000B583B0E8
:108C04000190054B0199184601F0E4FA0346184611
:108C140003B05DF804FB00BF8C2F002000B583B0C7
:108C24000190044B0199184601F0EDFA00BF03B01E
:108C34005DF804FB8C2F002008B50A4B1B68002B41
:108C440004D1094940F27A200BF0A0FE0121054825
:108C540001F04DFC0346002B14BF01230023DBB2BB
:108C6400184608BDE42E00201859040000B587B04A
:108C7400002305930023ADF812300323ADF8103020
:108C840000238DF80F300023ADF80C30EFE0BDF871
:108C94000C301A037E4BDB68134402930298FFF7EF
:108CA4008DFC03468DF807309DF80730012B00F04A
:108CB4009C80032B02D0002B62D0D3E00298FFF7F4
:108CC400A1FC0346002B3BD0724B1B68002B29D020
:108CD400BDF81220704913469B0013449B000B44BB
:108CE40002221A70BDF812206B4913469B001344EC
:108CF4009B000B440433029A1A60BDF812206649A3
:108D040013469B0013449B000B44083302221A8031
:108D1400624ABDF812305380BDF812300133ADF809
:108D2400123008E05B4A029B13605A4B02229A807D
:108D340001238DF80F30059B43F00103059391E067
:108D4400BDF81030013BADF81030BDF81220524987
:108D540013469B0013449B000B440433029A1A608D
:108D6400BDF812204C4913469B0013449B000B444E
:108D740003221A70BDF812300133ADF8123071E0DD
:108D8400BDF81220444913469B0013449B000B4436
:108D940000221A70BDF812203F4913469B00134469
:108DA4009B000B440433029A1A60BDF81220134648
:108DB4009B0013449B000833374A9918BDF81220CE
:108DC40013469B0013449B001033334A13441A4642
:108DD4000298FFF7A1FC059B43F002030593BDF83D
:108DE40012300133ADF812303CE09DF80F30002B07
:108DF40025D0BDF81220284913469B0013449B003C
:108E04000B4402221A70BDF81220224B1968224822
:108E140013469B0013449B00034404331960BDF8BC
:108E240012201D4913469B0013449B000B44083336
:108E340002221A80BDF812300133ADF81230154AFF
:108E4400029B1360002216490298FFF765FC114B40
:108E54009B88022B01D1042300E00823059A1343C5
:108E6400059300BFBDF80C300133ADF80C30BDF8EC
:108E74000C30022B7FF60BAFBDF81030012B01D85C
:108E840000230593059BDBB2184607B05DF804FB8D
:108E9400982B0020C42F00209C2F0020CC2F0020D2
:108EA400C82F002000B587B003900291039B0222D3
:108EB4009A750299039B1A1D002300930423074803
:108EC40002F0D0F80590059B002B01D1002300E0AF
:108ED4000E23184607B05DF804FB00BF982B002052
:108EE40000B587B003900291039B1B69002B01D04E
:108EF400032200E00122039B9A75029B0833194662
:108F0400039B03F10C02002300930423064802F0A0
:108F1400A9F80590059B002B01D1002300E00E2346
:108F2400184607B05DF804FB982B002000B587B005
:108F340003900291039B1B78032B01D1052200E0CF
:108F44000622039B9A75029B04331946039B03F183
:108F54000802002300930423064802F083F80590D6
:108F6400059B002B01D1002300E00E23184607B017
:108F74005DF804FB982B002000B587B003900B46E6
:108F8400ADF80A3003990023009304230C4A0D48DA
:108F940002F068F80590059B002B01D00E230BE02E
:108FA400BDF80A20084913469B0013449B000B4458
:108FB400103301221A700023184607B05DF804FB31
:108FC40098590400982B00209C2F002000B589B0EC
:108FD400019002AB00221A605A609A60019BDB6820
:108FE40002930DF1160202AB11461846FFF71AFD63
:108FF4000346002B12D0039B0693069B9A88019B81
:10900400DA80069B1A88019B1A81039BBDF81620FF
:1090140011461846FFF7B0FF079001E00A230793B3
:10902400079B184609B05DF804FB000000B587B043
:109034000190019B981D02AA0D4B0021FFF74CFDE6
:109044000590059B002B08D1039A094B9B88194670
:109054001046FFF791FF059004E008220021044820
:1090640019F010F9059B184607B05DF804FB00BF22
:10907400DC2F002000B587B003900291039B0122EE
:109084009A75029B0C331846039B1A69039BDB8871
:109094009900002300930B460146074801F0E2FFC4
:1090A4000590059B002B01D1002300E00E231846F8
:1090B40007B05DF804FB00BF982B002082B0184B6A
:1090C4001B8901339AB2164B1A81154B00225A8020
:1090D400134B00221A730023ADF8063018E0BDF8D4
:1090E4000620104913469B0013449B000B441A7836
:1090F400BDF80630002A0CBF01220022D1B2084A72
:1091040013440A469A72BDF806300133ADF80630AE
:10911400BDF80630012BE2D900BF02B0704700BF92
:10912400CC2F00209C2F002084B0019000238DF8C8
:109134000F300023ADF80C3031E0BDF80C301C4A80
:1091440013449B7A002B25D0BDF80C30184A1344E5
:1091540000229A72BDF80C20164913469B00134452
:109164009B000B440C331B68002B13D1BDF80C205F
:10917400104913469B0013449B000B4410331B7887
:10918400002B07D0019BBDF80C201A8001238DF819
:109194000F3008E0BDF80C300133ADF80C30BDF8E9
:1091A4000C30012BC9D99DF80F30184604B0704714
:1091B400CC2F00209C2F002008B5084B05221A70E4
:1091C400074B02229A80064B1B6819460023012292
:1091D400044802F029F80346184608BDCC2F0020A5
:1091E400C42F0020982B002000B583B0164B5B8859
:1091F400ADF80230BDF80220144913469B00134415
:109204009B000B440C331B68002B14D10E4B04221F
:109214001A70BDF802200D4913469B0013449B00AD
:109224000B4404331B68194600230122084801F04B
:10923400FBFF019002E0FFF7BFFF0190019B18467E
:1092440003B05DF804FB00BFCC2F00209C2F00204E
:10925400982B002000B587B0114B5B680593114B28
:109264001A68104B9B889B0013440493059B5B88EE
:109274000333ADF80E300A4B03221A700499084BDD
:109284005A68BDF80E309800002300930346064840
:1092940001F0E8FE0346184607B05DF804FB00BF82
:1092A400CC2F0020C42F0020982B002000B583B0C1
:1092B4000A4B5B880A491846FFF764FB0346002BF8
:1092C40003D0FFF7C7FF019002E0FFF78DFF019085
:1092D400019B184603B05DF804FB00BFCC2F0020AF
:1092E400D02F002008B50A4B06221A70084B5B8861
:1092F4001946084A0B469B000B449B001344043355
:109304001B681846FFF790FA0346184608BD00BFCD
:10931400CC2F00209C2F002008B5054B07221A7083
:10932400034B00225A60FFF767FA0346184608BD4C
:10933400CC2F002008B50D48FFF7F6FE034683F056
:109344000103DBB2002B0BD0094B00221A70084B2F
:1093540000225A80064B00225A6041F61D5302E057
:10936400FFF7A4FF0346184608BD00BFCE2F002018
:10937400CC2F002082B0094B5B680193019B5B8872
:109384000333ADF80230064B9A88BDF8023013441B
:109394009AB2034B9A8000BF02B07047CC2F0020D2
:1093A400C42F002082B0184B1B680193174B5B88B5
:1093B4001946174A0B469B000B449B001344043385
:1093C4001B68114A1360114B5B881946104A0B46FF
:1093D4009B000B449B0013440433019A1A600B4B0B
:1093E4005B881946084B9888094A0B469B000B4436
:1093F4009B001344083302461A80034B02229A80CE
:1094040000BF02B0704700BFC42F0020CC2F002043
:109414009C2F002008B51A4B1B78072B2CD801A2CF
:1094240052F823F0499402007D9402007D940200D6
:1094340055940200619402006D9402006D94020040
:1094440075940200FFF73AFE0D4B01221A7014E0E6
:10945400FFF790FF0A4B02221A700EE0FFF7A2FFFB
:10946400074B06221A7008E0054B07221A7004E025
:10947400034B01221A7000E000BF00BF08BD00BF0B
:10948400CC2F002000B587B0019000910F230593E5
:10949400019B002B04D0624B00225A600123BBE0E5
:1094A400009B1B79032B00F2AB8001A252F823F03E
:1094B400C5940200D39402006195020081950200D4
:1094C400009B01221A71FFF797F905909BE0002396
:1094D4008DF813300023ADF810302BE0BDF81020C8
:1094E400504913469B0013449B000B441B78022BEA
:1094F4001BD1BDF810204B4913469B0013449B001D
:109504000B4400221A7001238DF81330BDF810208B
:10951400444913469B0013449B000B4404331B68CB
:109524001846FFF781F9059008E0BDF810300133C3
:10953400ADF81030BDF81030012BCFD99DF81330A1
:1095440083F00103DBB2002B5CD0354B01221A708F
:10955400334B00225A6041F61D535DE0009B00220C
:109564001A71314B02229A802F4B1B681946002333
:1095740001222E4801F058FE059044E0009B002291
:109584001A71294B1B681846FFF74EF90590284BB2
:109594005B88ADF80E30244B1B680293BDF80E2097
:1095A400204913469B0013449B000B4404331B685F
:1095B4001D4A1360BDF80E201A4913469B0013443C
:1095C4009B000B440433029A1A60BDF80E20164B1C
:1095D4009888144913469B0013449B000B4408339A
:1095E40002461A80104B02229A80BDF80E200D49C3
:1095F40013469B0013449B000B4400221A7002E0A4
:1096040000BF00E000BF059B002B04D0044B0022E8
:109614005A600E2300E00023184607B05DF804FBEF
:10962400DC2E00209C2F0020C42F0020982B00202B
:10963400CC2F002000B587B001900091009B9B8A3D
:109644001A4613469B0013449B003A4A134404935E
:10965400019B002B05D000990498FFF7AFF8012374
:1096640063E0049B5A68049B1B899B001344039387
:10967400009B9B7D062B4DD801A252F823F000BF1E
:10968400C7960200EB960200D3960200DF96020012
:10969400A1960200F796020011970200264B0022C1
:1096A4005A60009B9B69244A136024492248FFF7AF
:1096B400B9F9034683F00103DBB2002B01D00A237E
:1096C40033E003990098FFF7EDFB059025E003993B
:1096D4000098FFF705FC05901FE003990098FFF739
:1096E400C9FC059019E003990098FFF71FFC059049
:1096F40013E0009B06229A750F4B5A680F4B1B8888
:1097040019461046FFF738FC059006E041F61D5354
:10971400059302E00F23059300BF059B002B03D0A4
:1097240000990498FFF74AF8059B184607B05DF8BE
:1097340004FB00BF9C2F0020E42F0020F02F00200A
:1097440000B585B001900091019B002B01D001234D
:1097540023E0009B1B79012B0BD0022B14D0002B90
:1097640016D1009B02221A710098FFF72FFC039078
:1097740012E00098FFF75AFC0390039B0A2B0AD1CE
:1097840041F61D53039306E041F61D53039303E092
:109794000F23039300E000BF039B184605B05DF858
:1097A40004FB000000B585B00190019B002B01D0A3
:1097B40001233BE01F4B1B7B002B03D01D4B0022DE
:1097C4001A7301E0FFF726FE1A4B1B78013B062BA8
:1097D40028D801A252F823F0F99702000198020058
:1097E40009980200119802002998020019980200B1
:1097F40021980200FFF79EFD039016E0FFF756FD47
:10980400039012E0FFF726FD03900EE0FFF7ECFC57
:1098140003900AE0FFF766FD039006E0FFF77CFD86
:10982400039002E00F23039300BF039B184605B087
:109834005DF804FBCC2F002000B589B001903F4BAC
:109844001B68002B05D13E48FFF7D8F902463B4B75
:109854001A603A4B1B68002B04D13A4940F28250FB
:109864000BF094F8354B1B681B78013B052B2CD867
:1098740001A252F823F000BF95980200A5980200B7
:10988400A5980200B5980200B5980200C598020098
:109894002A4B1B6819460198FFF7F4FD019017E065
:1098A400264B1B6819460198FFF7C4FE01900FE090
:1098B400224B1B6819460198FFF742FF019007E00D
:1098C4000198FFF76FFF019002E00F23019300BF9F
:1098D400019B002B2BD003AB00221A605A609A60C4
:1098E400DA601A61019B41F61D52934201D0019B3B
:1098F40000E000230493114B1B6803AA1146184689
:10990400FEF78AFD03AB1846FEF768FD0B4B0022F9
:109914001A60002301930A48FFF780F9FFF78CF9D6
:10992400034683F00103DBB2002B02D187E700BFBB
:1099340000E000BF00BF09B05DF804FBF42F002075
:10994400F82F00201859040008B50121054800F03B
:109954009EFD0346002B02D10020FFF76DFF00BFE0
:1099640008BD00BFE42E002000B583B00190019B28
:109974005B681846FFF760FF00BF03B05DF804FBA7
:1099840000B58BB00390029101928DF8033000234F
:10999400ADF824300023ADF82630514B1B78DBB2F0
:1099A40083F00103DBB2002B01D0022393E0029B7E
:1099B400002B01D105238EE0029B1B884FF6FF721A
:1099C400934203D0029B5B88002B01D1042382E0E5
:1099D400029B5B681846FEF7F4FC034683F0010320
:1099E400DBB2002B01D0032375E0019B002B11D1C6
:1099F400029B9B68ADF826300DF11A02BDF82630A3
:109A040011461846FEF724FF0890089B002B09D046
:109A1400089B60E0019B1B88ADF81A30019B5B88B2
:109A2400ADF8263005AB1846FFF7C4F80790079B3E
:109A3400002B09D1BDF81A20BDF82630114618466E
:109A4400FEF76EFF082346E0079B9DF803201A707B
:109A5400079B00229A75BDF81A20079B9A82029BE5
:109A64005A68079B1A61FEF783FF0246079BDA6078
:109A7400029B1A88079B1A81029B5A88079B9A802B
:109A8400079BBDF82620DA809DF80330032B06D10E
:109A9400079B04229A75039B1A68079B9A61079B8C
:109AA400BDF824205A8105AB1846FFF799F8039BAB
:109AB400002B0DD0039B00225A60079BDA68039B9E
:109AC4001A60039B00229A72064B1A89039B1A811F
:109AD400FFF73AFF002318460BB05DF804FB00BF04
:109AE400DC2E0020CC2F002000B585B001900C4B5B
:109AF4001B68042B02D10C2303930BE0084B1B6857
:109B04000849019A41F823200121054800F0D7FCB7
:109B140000230393039B184605B05DF804FB00BFC4
:109B2400E82E0020EC2E002084B040F6F8731B6869
:109B3400B3F1FF3F02D10F4B1B6802E040F6F8730C
:109B44001B6803934FF080531B6902934FF08053BB
:109B54005B690193039BB3F1FF3F04D1019B029A1C
:109B640002FB03F300E0039B0093009B184604B040
:109B7400704700BF1410001000B583B04FF4405379
:109B84000193FFF7D1FF0246054B1A61044B1A6992
:109B9400019BD31A024AD36000BF03B05DF804FBF3
:109BA400982B002008B5FFF7E7FF0022034904487B
:109BB40001F010FA0346184608BD00BF185D040002
:109BC400982B002008B504481C238C22034900F07C
:109BD4008DFA00BF08BD00BF8C2F0020002F00208D
:109BE40000B58BB002AB00221A605A609A60DA604A
:109BF4001A61404B1B78DBB2002B05D002AB184630
:109C0400FEF7ECFB002371E03B4800F088FC0346C0
:109C1400002B01D0002369E0FFF7C4FF0990099BE2
:109C2400002B01D0099B61E0FFF7CCFFFFF71EF882
:109C340003468DF823309DF82330022B03D0062BE6
:109C440003D0002B0DD10B2350E02A4B01221A70B4
:109C5400284B00225A6002AB1846FEF7BFFB0023D4
:109C640044E000BF01AB1846FEF7A4FF0790079B32
:109C7400002B01D1082339E0079B01221A709DF8BB
:109C84002330013B0A2B29D801A252F823F000BF4C
:109C9400C19C0200E19C0200C19C0200E19C020004
:109CA400D99C0200E19C0200D99C0200E19C0200C4
:109CB400C99C0200D19C0200C99C0200079B00229F
:109CC4001A710CE0079B03221A7108E0079B022219
:109CD4001A7104E0079B01221A7100E000BF01AB76
:109CE4001846FEF77DFFFFF72FFE002318460BB042
:109CF4005DF804FBDC2E0020E02E002000B585B0CA
:109D040001900091019B002B02D0009B002B01D1FC
:109D1400052329E00DF10A0319460198FEF782FE96
:109D24000346002B1FD0019B5B680393BDF80A30E8
:109D34001A4613469B0013449B0008330C4A1344F1
:109D440004330121184600F0BAFB009B039A1A6001
:109D5400019B5B6803F10C02009B5A60019B01228A
:109D64009A72002300E00A23184605B05DF804FB4C
:109D74009C2F002000B585B00190019B002B01D1E0
:109D8400052339E00DF10A0319460198FEF74AFE4E
:109D94000346002B2DD0BDF80A301946184A0B464D
:109DA4009B000B449B0013440C331B68002B1DD0F9
:109DB400019B9B7A002B19D0BDF80A301A46104932
:109DC40013469B0013449B000B440C331B68591E21
:109DD4000B4813469B0013449B0003440C33196047
:109DE400019B00229A720023039304E00623039349
:109DF40001E00A230393039B184605B05DF804FBB6
:109E04009C2F002000B583B0019000910223002212
:109E140000990198FFF7B4FD0346184603B05DF8B6
:109E240004FB00B583B001900091019B002B01D18C
:109E3400052306E00323002200990198FFF7A0FD03
:109E44000346184603B05DF804FB000000B585B076
:109E54000346ADF80630184B1B78DBB283F00103E0
:109E6400DBB2002B01D0022322E0BDF806304FF60E
:109E7400FF72934201D104231AE002AB1846FEF7A5
:109E840099FE0390039B002B01D1082310E0039B50
:109E940005221A70039B01221A71039BBDF8062048
:109EA400DA8002AB1846FEF79BFEFFF74DFD002358
:109EB400184605B05DF804FBDC2E002000B583B025
:109EC400144B1B78DBB283F00103DBB2002B01D00F
:109ED40002231AE06B461846FEF76CFE0190019BC4
:109EE400002B01D1082310E0019B06221A706B4657
:109EF4001846FEF775FE084B1B78002B02D0064B64
:109F040001221A73FFF720FD0023184603B05DF801
:109F140004FB00BFDC2E0020CC2F002000B585B050
:109F2400029201930346ADF80E300B46ADF80C30A7
:109F340003A90DF10E00019B029AFEF7CDFD034625
:109F4400184605B05DF804FB00B585B003460291E0
:109F54000192ADF80E300DF10E01019B029A002022
:109F6400FEF7BAFD0346184605B05DF804FB00B5DC
:109F740085B0034602910192ADF80E300DF10E004A
:109F8400019B029A0021FEF7A7FD0346184605B07F
:109F94005DF804FB82B001900091019B002B02D07C
:109FA400009B002B01D1052304E0019B1A68009B50
:109FB4001A600023184602B0704786B001900091E1
:109FC400019B53E8011F8AB2D889024498898242CE
:109FD40028BF121A1889824202BFBFF32F8F0023B1
:109FE40007E0C2EA010243E801200028E9D14FF06A
:109FF40001038DF80F30059002910492029A009BA0
:10A004001A609DF80F30DBB2184606B0704784B072
:10A014000190019951E8013FC3EA034341E8013249
:10A02400002AF7D10392029300BF04B0704786B0B0
:10A0340001900091019B53E8021F1FFAA1F2D888F6
:10A04400824202BFBFF32F8F00230DE0D889024460
:10A054009889824228BF121AC1EA024243E80220C8
:10A064000028E8D14FF001038DF80F3005900291DC
:10A074000492029A009B1A609DF80F30DBB21846D6
:10A0840006B0704784B00190019951E8023FC3EAD9
:10A09400234341E80232002AF7D10392029300BF1E
:10A0A40004B0704786B00190019B53E8021FDA8820
:10A0B400B1EB314F4FF0000017BF89B242EA0242C0
:10A0C40041EA024204E05968B1EB314F08BF012074
:10A0D40043E802210029E8D18DF80F00059104928C
:10A0E4009DF80F30DBB2184606B0704784B0039079
:10A0F400029111461A460B46ADF806301346ADF8E8
:10A104000430029B002B01D10E231FE0BDF8063062
:10A11400BDF80420B3FBF2F102FB01F29B1A9BB2DF
:10A12400002B01D0092311E0039B029A1A60039BC0
:10A1340000225A60039B00229A60039BBDF806200C
:10A144009A81039BBDF80420DA810023184604B0E9
:10A15400704700B585B001900198FFF7A3FF03464F
:10A164008DF80F309DF80F30002B01D0002300E054
:10A174001123184605B05DF804FB00B585B00190C5
:10A184000091009B19460198FFF717FF0346002B27
:10A1940007D0019B1B68009A128813440393039B06
:10A1A40000E00023184605B05DF804FB00B583B059
:10A1B40001900091009B1A88009B5B889A4204D10D
:10A1C4000198FFF724FF012300E00023184603B0A1
:10A1D4005DF804FB00B585B001900091009B194621
:10A1E4000198FFF724FF0346002B07D0019B1B684F
:10A1F400009A528813440393039B00E000231846FB
:10A2040005B05DF804FB00B583B001900091009B9C
:10A214001A88009B5B889A4204D10198FFF732FFA9
:10A22400012300E00023184603B05DF804FB00B5E9
:10A2340085B001900091009B5B099B00019AD018A6
:10A24400009B03F01F03012202FA03F3194600F0F6
:10A25400D6F8039000BF05B05DF804FB00B583B0E9
:10A2640001900091009B5B099B00019AD018009B10
:10A2740003F01F03012202FA03F3194600F0A7F8C2
:10A284000246009B03F01F0322FA03F303F00103C9
:10A29400002B14BF01230023DBB2184603B05DF882
:10A2A40004FB00B585B001900091009B5B099B0005
:10A2B400019AD018009B03F01F03012202FA03F352
:10A2C400DB43194600F0CBF8039000BF05B05DF8FE
:10A2D40004FB82B001900091009B5B099B00019AF2
:10A2E40013441A68009B03F01F0322FA03F303F0DC
:10A2F4000103002B14BF01230023DBB2184602B074
:10A30400704700B58BB001900091002309933BE0A6
:10A31400099B9B00019A13441B68DB430693069B2D
:10A3240093FAA3F30593059BB3FA83F3089323E00D
:10A33400099B5B01089A13440793079A009B9A426E
:10A344001ED207990198FFF789FF034683F00103A2
:10A35400DBB2002B01D0079B1EE0099B9B00019AF6
:10A3640013441B68DB430493049B93FAA3F3039302
:10A37400039BB3FA83F30893089B1F2BD8D900E0FF
:10A3840000BF099B01330993009B013B5B09013327
:10A39400099A9A42BCD3009B18460BB05DF804FBA3
:10A3A40010B487B001900091019B009A53E8004FCC
:10A3B400104643E8000191F0000FF7D10594049092
:10A3C4000391059B184607B05DF8044B704710B421
:10A3D40087B001900091019B009A53E8004F44EA32
:10A3E400020043E8000191F0000FF6D105940490B7
:10A3F4000391059B184607B05DF8044B704710B4F1
:10A4040087B001900091019B009A53E8004F44EA01
:10A41400020043E8000191F0000FF6D10594049086
:10A424000391049B184607B05DF8044B704710B4C1
:10A4340087B001900091019B009A53E8004F04EA11
:10A44400020043E8000191F0000FF6D10594049056
:10A454000391059B184607B05DF8044B704710B490
:10A4640087B001900091019B009A53E8004F04EAE1
:10A47400020043E8000191F0000FF6D10594049026
:10A484000391049B184607B05DF8044B704710B461
:10A4940087B001900091019B009A53E8004F04EBB0
:10A4A400020043E8000191F0000FF6D105940490F6
:10A4B4000391059B184607B05DF8044B704710B430
:10A4C40087B001900091019B009A53E8004F04EB80
:10A4D400020043E8000191F0000FF6D105940490C6
:10A4E4000391049B184607B05DF8044B704710B401
:10A4F40087B001900091019B009A53E8004FA4EBB0
:10A50400020043E8000191F0000FF6D10594049095
:10A514000391049B184607B05DF8044B704700B5DF
:10A5240083B0019001210198FFF751FF03461846BB
:10A5340003B05DF804FB00B583B0019001210198DC
:10A54400FFF75DFF0346184603B05DF804FB00B552
:10A5540083B0019000210198FFF769FF0346184674
:10A5640003B05DF804FB000000B583B001900B4616
:10A574008DF80330019B002B03D10849E8200AF031
:10A5840005FA019BDA689DF803300199098A01FBF9
:10A5940003F31344184603B05DF804FBA859040000
:10A5A40000B583B001900091019B002B03D10849B1
:10A5B400F5200AF0EBF9009B019AD2689B1A019AE4
:10A5C400128AB3FBF2F3DBB2184603B05DF804FB66
:10A5D400A859040000B585B00190019B002B01D15E
:10A5E4000E234CE0019B1B68002B03D12649FF205E
:10A5F4000AF0CCF9019B5B68002B04D122494FF48B
:10A6040080700AF0C3F9019B9B68002B04D11E499A
:10A6140040F201100AF0BAF9019BDB68002B04D167
:10A6240019494FF481700AF0B1F9019B1B8A002B80
:10A6340004D1154940F203100AF0A8F9019B9A6865
:10A64400019B5B68D31A8DF80F30019B1B68019A3C
:10A6540052681A6007E0019B1A681368591C11605C
:10A664009DF80F201A709DF80F305A1E8DF80F2098
:10A67400002BF0D1019B1B6800221A71002318469D
:10A6840005B05DF804FB00BFA859040000B585B00F
:10A694000190019B002B04D11F494FF492700AF0E2
:10A6A40075F90023039300238DF80A300DF10A0392
:10A6B4001846FDF739FE019B1B681A68019B5B680D
:10A6C4009A421FD9019B1B681A68013A1A601B68D9
:10A6D4001B7819460198FFF747FF0390019B9A687E
:10A6E400019B1B681B68D31A8DF80B30019B1B68F8
:10A6F4001B799DF80B209A4204D9019B1B689DF895
:10A704000B201A719DF80A301846FDF723FE039BAF
:10A71400184605B05DF804FBA859040010B584B0D0
:10A7240001900091019B002B04D1154940F2471080
:10A734000AF02CF9009B002B04D111494FF4A470AA
:10A744000AF024F9009B039300238DF80B300DF1DC
:10A754000B031846FDF7E8FD019B1B681C68621C8F
:10A764001A6003990198FFF71BFF034623709DF8B5
:10A774000B301846FDF7EEFD00BF04B010BD00BF5E
:10A78400A859040000B583B00190019B002B03D1AC
:10A794000C4931200AF0FAF8019B9B68002B0CD07D
:10A7A400019B5B69019A1069019A1168019A926888
:10A7B4009847019B00229A6000E000BF03B05DF857
:10A7C40004FB00BF245A04000EB400B584B0019009
:10A7D400019B002B03D1184942200AF0D7F8019BB2
:10A7E4005B69002B03D1144943200AF0CFF8019B85
:10A7F4001B68002B03D1104944200AF0C7F8019BC1
:10A804005B68002B03D10C4945200AF0BFF8059B77
:10A81400002B0AD00023039306AB039303AB1A4621
:10A824000599019800F0B8F900E000BF04B05DF8A4
:10A8340004EB03B0704700BF245A040000B583B092
:10A8440001900B468DF803309DF803300A2B03D199
:10A854000D210198FFF7F2FF019B1A68019B9B6889
:10A86400581C0199886013449DF803201A70019BB9
:10A874009A68019B5B689A4202D30198FFF782FFB2
:10A8840000BF03B05DF804FB00B587B003900291EC
:10A894000192009300230593009B03F00103002B16
:10A8A40024D00BE0029B01330293059B01330593F3
:10A8B4009DF8133019460398FFF7C0FF029B1B78DD
:10A8C4008DF813309DF81330002BEBD106E0019B7B
:10A8D400013B019320210398FFF7B0FF019A059BE8
:10A8E4009A422ED9019B002BF1D12AE0029B002B26
:10A8F4000BD0029817F01BFD059006E0019B013B6D
:10A90400019320210398FFF799FF019A059B9A422E
:10A914000FD9019B002BF1D10BE0029B0133029371
:10A92400059B013305939DF8133019460398FFF7EF
:10A9340085FF029B1B788DF813309DF81330002B94
:10A94400EBD100BF07B05DF804FB000000B589B08F
:10A954000390029101920093029B079301230693B3
:10A9640007E0079A019BB2FBF3F30793069B0133BD
:10A974000693079A019B9A42F3D2009A069B9A4245
:10A9840001D9009B06930B9B03F00103002B22D1FA
:10A994000A9B002B1FD00B9B03F00203002B06D055
:10A9A400009B002B03D130238DF8173002E02023C5
:10A9B4008DF8173008E00A9B013B0A939DF8173085
:10A9C40019460398FFF73AFF0A9B002B03D0069A17
:10A9D4000A9B9A42EFD301230793009B012B03D9CF
:10A9E400009B013B009309E0029A079BB2FBF3F33F
:10A9F4000493049A019B9A4200D205E0079B019AB2
:10AA040002FB03F30793E8E7029A079BB2FBF3F315
:10AA14000493049B079A02FB03F3029AD31A02934A
:10AA2400154A049B13441B7819460398FFF706FF45
:10AA3400079A019BB2FBF3F30793079B002BE3D127
:10AA44000B9B03F00103002B11D00A9B002B0ED0AB
:10AA540006E00A9B013B0A9320210398FFF7EEFED0
:10AA64000A9B002B03D0069A0A9B9A42F1D300BF9B
:10AA740009B05DF804FB00BF0C5B040000B589B0AD
:10AA84000590049103920293049B002BB8BF5B4290
:10AA940006930123079307E0039B069A92FBF3F3C3
:10AAA4000693079B01330793039B069A9A42F3DAB2
:10AAB400029A079B9A4201D9029B07930A9B002B97
:10AAC4000AD0049B002B04DB0B9B03F00403002B34
:10AAD40002D00A9B013B0A930B9B03F00203002B59
:10AAE40002D0029B002B16D00B9B03F00103002B1A
:10AAF40011D10A9B002B0ED006E00A9B013B0A935E
:10AB040020210598FFF79AFE0A9B002B03D0079A91
:10AB14000A9B9A42F1D3049B002B07DA049B5B4205
:10AB240004932D210598FFF789FE08E00B9B03F0A1
:10AB34000403002B03D02B210598FFF77FFE0B9B0A
:10AB440003F00203002B19D00B9B03F00103002B2D
:10AB540014D1029B002B11D10A9B002B0ED006E0CE
:10AB64000A9B013B0A9330210598FFF767FE0A9B75
:10AB7400002B03D0079A0A9B9A42F1D304990B9BAA
:10AB840001930A9B0093029B039A0598FFF7DEFE4C
:10AB940000BF09B05DF804FB00B58FB005900491C7
:10ABA4000392059B002B04D1C8494FF4A27009F00D
:10ABB400EDFE059B5B69002B04D1C4494FF4A370DF
:10ABC40009F0E4FE059B1B68002B04D1BF4940F249
:10ABD400471009F0DBFE059B5B68002B04D1BB49E1
:10ABE4004FF4A47009F0D2FE049B002B00F0ED8119
:10ABF400049B1B788DF83730049B013304939DF834
:10AC04003730002B00F0D8819DF83730252B40F0E9
:10AC1400C78100230A9301230C93049B1B788DF8AE
:10AC240037309DF837302D2B04D0302B0AD02B2B06
:10AC340010D017E00A9B43F001030A93049B0133ED
:10AC4400049312E00A9B43F002030A93049B01332A
:10AC540004930AE00A9B43F004030A93049B013320
:10AC6400049302E000230C9300BF0C9B002BD4D16F
:10AC7400002309939DF837302A2B0CD1039B1B68C2
:10AC8400191D039A11601B68099A13440993049BC4
:10AC9400013304931AE0049B1B788DF837309DF838
:10ACA40037302F2B12D99DF83730392B0ED8049B0F
:10ACB40001330493099A13469B0013445B001A461C
:10ACC4009DF837301344303B0993D3E700230B93AB
:10ACD400049B1B788DF837309DF837302E2B1DD10F
:10ACE400049B01330493049B1B788DF837309DF843
:10ACF40037302F2B12D99DF83730392B0ED8049BBF
:10AD0400013304930B9A13469B0013445B001A46C9
:10AD14009DF837301344303B0B93E4E7049B1B78D6
:10AD24008DF837309DF837306C2B03D09DF83730D1
:10AD3400682B07D1049B01330493049B1B788DF883
:10AD44003730EFE79DF83730253B532B00F2238152
:10AD540001A252F823F000BF91AF02009BAF0200A2
:10AD64009BAF02009BAF02009BAF02009BAF0200AF
:10AD74009BAF02009BAF02009BAF02009BAF02009F
:10AD84009BAF02009BAF02009BAF02009BAF02008F
:10AD94009BAF02009BAF02009BAF02009BAF02007F
:10ADA4009BAF02009BAF02009BAF02009BAF02006F
:10ADB4009BAF02009BAF02009BAF02009BAF02005F
:10ADC4009BAF02009BAF02009BAF02009BAF02004F
:10ADD4009BAF02009BAF02009BAF02009BAF02003F
:10ADE4009BAF02009BAF02009BAF02009BAF02002F
:10ADF4009BAF02009BAF02009BAF02009BAF02001F
:10AE04009BAF02009BAF02009BAF02009BAF02000E
:10AE14009BAF02009BAF02009BAF02009BAF0200FE
:10AE24009BAF02001DAF02009BAF02009BAF02006C
:10AE34009BAF02009BAF02009BAF02009BAF0200DE
:10AE44009BAF02009BAF02009BAF02009BAF0200CE
:10AE5400ADAE0200D5AE02009BAF02009BAF020074
:10AE64009BAF02009BAF0200D5AE02009BAF020075
:10AE74009BAF02009BAF02009BAF02009BAF02009E
:10AE84009BAF02005DAF02009BAF02009BAF0200CC
:10AE940041AF02009BAF0200F9AE02009BAF02007B
:10AEA4009BAF02001DAF0200039B1B68191D039A90
:10AEB40011601B680C930C9B8DF823309DF8233094
:10AEC40019460598FFF7BAFC66E000BF945A0400DF
:10AED400039B1B68191D039A11601B680C930A9B42
:10AEE4000193099B00930B9B0A220C990598FFF789
:10AEF400C5FD51E0039B1B68191D039A11601B6873
:10AF04000C930C990A9B0193099B00930B9B0A22B7
:10AF14000598FFF71BFD3FE0039B1B68191D039A6F
:10AF240011601B680C930C990A9B0193099B009375
:10AF34000B9B10220598FFF709FD2DE0039B1B686E
:10AF4400191D039A11601B6807930A9B099A0799B4
:10AF54000598FFF799FC1FE0039B1B68191D039AD2
:10AF640011601B680C9330210598FFF767FC78216A
:10AF74000598FFF763FC0C990023019308230093C1
:10AF8400082310220598FFF7E1FC05E02521059828
:10AF9400FFF754FC00E000BF049B0133049305E079
:10AFA4009DF8373019460598FFF748FC049B1B7839
:10AFB400002B7FF41DAE00E000BF059B1B7B002B24
:10AFC40004D00598FFF7DEFB00E000BF0FB05DF88A
:10AFD40004FB00BF00B587B0059004910392059B64
:10AFE400002B10D1194A1A4BD31ADB081B0443F067
:10AFF4000100184A18490E2300930B46174907F01D
:10B00400BCF80E231DE0049B002B10D10F4A104BFB
:10B01400D31ADB081B0443F00100114A0E490E2326
:10B0240000930B460D4907F0A8F80E2309E0059B91
:10B03400049A1A60059B1B681B6803990598984736
:10B044000346184607B05DF804FB00BF4C560400E5
:10B05400D45504002C5B0400D05C0400345B040071
:10B06400605B040010B586B00590049103920293CE
:10B07400059B002B10D1604A604BD31ADB081B04DC
:10B0840043F001005E4A5F490E2300930B465E497C
:10B0940007F073F80E23ABE0039B002B10D1564A44
:10B0A400564BD31ADB081B0443F00100574A554999
:10B0B4000E2300930B46544907F05FF80E2397E0E4
:10B0C400059B1B68002B10D14B4A4C4BD31ADB0851
:10B0D4001B0443F001004E4A4A49082300930B46DF
:10B0E400494907F04AF8082382E0029B002B10D15B
:10B0F400414A424BD31ADB081B0443F00100454A82
:10B104004049092300930B463F4907F036F80923C9
:10B114006EE0059B5B685A68029BB3FBF2F102FB8D
:10B1240001F29B1A002B10D0334A344BD31ADB089C
:10B134001B0443F00100384A3249092300930B46AB
:10B14400314907F01AF8092352E0049800F01EF977
:10B154000346002B10D1284A284BD31ADB081B04C2
:10B1640043F001002D4A2749102300930B4626493A
:10B1740007F003F810233BE0039B184600F006F9A0
:10B184000346002B10D11C4A1C4BD31ADB081B04AA
:10B1940043F00100224A1B49102300930B461A492D
:10B1A40006F0EBFF102323E0029A0499059800F0BF
:10B1B400D3F80346002B10D10F4A104BD31ADB08E7
:10B1C4001B0443F00100174A0E49102300930B4659
:10B1D4000D4906F0D2FF10230AE0059B1B68DC68CA
:10B1E400089B0093029B039A04990598A047034681
:10B1F400184606B010BD00BF4C560400D4550400D8
:10B204002C5B0400E45C0400345B0400C05B0400B9
:10B21400685B04007C5B0400C85B0400F45B04000E
:10B224000C5C0400305C040010B586B005900491F9
:10B2340003920293059B002B10D13E4A3E4BD31A36
:10B24400DB081B0443F001003C4A3D490E230093F4
:10B254000B463C4906F091FF0E2368E0059B1B68F2
:10B26400002B10D1334A344BD31ADB081B0443F0B0
:10B274000100354A3249082300930B46314906F050
:10B284007CFF082353E0039B002B10D1294A2A4B4F
:10B29400D31ADB081B0443F001002C4A2849092374
:10B2A40000930B46274906F068FF09233FE0049901
:10B2B400059800F078F80346002B10D11D4A1E4B68
:10B2C400D31ADB081B0443F00100214A1C49102354
:10B2D40000930B461B4906F050FF102327E0059B03
:10B2E4005B681B68039A02FB03F31A4604990598EA
:10B2F40000F032F80346002B10D10E4A0E4BD31A3D
:10B30400DB081B0443F00100124A0D49102300938B
:10B314000B460C4906F031FF102308E0059B1B681F
:10B324001C69029B039A04990598A0470346184692
:10B3340006B010BD4C560400D45504002C5B040028
:10B34400F85C0400345B0400685B04007C5B04006C
:10B35400585C0400805C040084B003900291019264
:10B36400039BDB68029A9A4209D3029A019B134415
:10B374005A1E039B1B699A4201D8012300E0002353
:10B3840003F00103DBB2184604B0704782B00190A9
:10B39400019B03F00303002B0CBF01230023DBB24A
:10B3A400184602B0704782B001900091019B5B681F
:10B3B4001B685A1E009B1340002B0CBF0123002363
:10B3C400DBB2184602B0704729DF704700BF184649
:10B3D40028DF704700BF184600B589B0019000917E
:10B3E400019B1B689B68002B35D002AB00221A60BE
:10B3F4005A609A60DA601A615A61009B0393019B58
:10B404009B680793019B1B79002B02D0012B0DD065
:10B414001AE001238DF80830019B1B690493019BFA
:10B42400DB680593019B5B6906930DE002238DF8AD
:10B434000830019BDB684FF4805202FB03F3049352
:10B44400019B5B69069300BF019B1B689B6802AA72
:10B454001046984700E000BF09B05DF804FB00B552
:10B4640087B00190019B5A69019B9B69D31AB3F57C
:10B47400805F28BF4FF4805305930422059BB3FBE0
:10B48400F2F3012B38BF01230593019B1A69019B39
:10B494009B6913440493019BDB681A46019B9B69D7
:10B4A40013440393059A03990498FFF78DFF034609
:10B4B400184607B05DF804FB00B583B00190019B0A
:10B4C400DA68019B1B6913441846FFF781FF0346A2
:10B4D400184603B05DF804FB08B5034B034918464E
:10B4E400FEF791FE00BF08BD88300020B030002078
:10B4F40008B5084B08491846FEF76CFE0246074B90
:10B504001A60064B1B68002B14BF01230023DBB217
:10B51400184608BD88300020B0300020AC30002030
:10B5240000B583B02B4B1B7A002B0BD1FFF7E0FF48
:10B53400034683F00103DBB2002B03D0254B00222A
:10B544005A6043E0234B02221A72234B1B681B7977
:10B55400002B02D0012B07D00DE01F4B1B681846AF
:10B56400FFF77DFF019009E01B4B1B681846FFF7AE
:10B57400A3FF019002E00323019300BF019B002B72
:10B5840003D0019B112B0CD00FE0124B1B7C83F0DA
:10B594000103DBB2002B18D00021022000F062F975
:10B5A40013E00C4B01221A7210E00B4B1B680321B1
:10B5B4001846FFF711FF074B00221A72054B0022B1
:10B5C4005A60FFF789FF00BF00E000BF03B05DF8D9
:10B5D40004FB00BF98300020AC30002008B50848B8
:10B5E400FEF79DFF0346002B08D1064B5B7C83F0DE
:10B5F4000103DBB2002B01D0FFF792FF00BF08BDAF
:10B604009C3000209830002084B001901B4B002215
:10B61400DA60019B1B79002B02D0012B19D028E0A2
:10B62400019B5A69019B9B69D31AB3F5805F28BFBC
:10B634004FF480530393019B9A69039B1A44019B23
:10B644009A61019B9A69019B5B699A420ED101231D
:10B6540010E0019B1B695A1C019B1A61019B1A692A
:10B66400019B5B699A4203D1012303E000BF00E020
:10B6740000BF0023184604B0704700BF9830002074
:10B6840082B00190084BDB680133074AD360064B54
:10B69400DB68082B04D9044B0022DA60012300E0A4
:10B6A4000023184602B070479830002000B583B0DC
:10B6B40001900091019B0C4A5A600C48FEF72FFF41
:10B6C4000346002B0BD115F0B7F903461A46074B76
:10B6D4001A7407481C238C220649FEF707FD002331
:10B6E400184603B05DF804FB0C5D0400983000209C
:10B6F40088300020FC2F002000B583B00190009119
:10B7040014220021054816F0BDFD054B1846FEF72E
:10B7140020FD0023184603B05DF804FB9830002098
:10B724008830002000B587B0039002910192009305
:10B73400174A04AB19461046FEF71FFD0590059BFA
:10B74400002B01D104231FE01C220021059816F0D0
:10B7540099FD059B00221A71059B039A1A60059BAB
:10B76400089A9A60059B029A1A61059B019ADA600D
:10B77400059B009A5A61064A04AB19461046FEF727
:10B7840015FDFFF72BFF0023184607B05DF804FBF7
:10B794008830002000B585B0039002910192009397
:10B7A400029B009A1946019816F043FD002318469F
:10B7B40005B05DF804FB000000B587B0039002916A
:10B7C40001920093184A04AB19461046FEF7D5FCC3
:10B7D4000590059B002B01D1042320E01C220021AD
:10B7E400059816F04FFD059B01221A71059B039ADB
:10B7F4001A60059B009A9A604FF48052029BB3FB37
:10B80400F2F2059BDA60059B019A5A61064A04AB81
:10B8140019461046FEF7CAFCFFF7E0FE002318465F
:10B8240007B05DF804FB00BF8830002082B00190AF
:10B834000091009B184602B0704782B001900091BD
:10B844000023184602B0704782B00190044B1B7A63
:10B85400002B14BF01230023DBB2184602B070474B
:10B864009830002000B585B001900091019B022B17
:10B8740002D0019B032B4AD1274B1B7A012B36D0D4
:10B88400022B02D0002B35D142E000238DF80F307B
:10B89400019B022B03D0019B032B09D011E01F4B0A
:10B8A4001B681846FFF7B0FE03468DF80F3008E01A
:10B8B4001A4B1B681846FFF7E3FE03468DF80F305A
:10B8C40000BF9DF80F30002B13D0134B00221A72C7
:10B8D400124B1A68019B022B01D1002300E00D23B7
:10B8E40019461046FFF778FDFFF7F6FD01E000BFAB
:10B8F40000E000BF084B5B7C83F00103DBB2002B4C
:10B9040002D0FFF70DFE03E015F07AF800E000BF67
:10B9140005B05DF804FB00BF98300020AC30002077
:10B9240082B0034600918DF80730064B01225A7409
:10B93400044B1B7A002B0CBF01230023DBB21846F7
:10B9440002B070479830002000B583B003460091E0
:10B954008DF807309DF80730012B03D09DF8073090
:10B96400032B0DD1084B00225A749DF80730012B8C
:10B974000CBF01230023DAB2034B1A74FFF7D0FD86
:10B9840000BF03B05DF804FB9830002000B583B01D
:10B9940001900198FEF71EFE0346184603B05DF8B9
:10B9A40004FB00B58BB001900091019B1B8A043B02
:10B9B4000793009A079B1344DA1C079BB2FBF3F32B
:10B9C4008DF81B300198FEF761FE0590059B002B56
:10B9D40001D1002338E0059B00221A71059B012246
:10B9E4005A71079B9AB2059BDA80059B09939DF8CF
:10B9F4001B30013B0493099B019A1A6000230893AE
:10BA04001DE00198FEF742FE0390039B002B0ED02D
:10BA1400059B5B790133DAB2059B5A71099B039A42
:10BA24001A60039B019A1A60039B099304E005982A
:10BA340000F00EF8002307E0089B01330893089AEE
:10BA4400049B9A42DDD3059B18460BB05DF804FBBA
:10BA540000B58BB00190019B0793079B5B798DF830
:10BA64001B30019B08939DF81B30013B0593002379
:10BA7400099305E0089B1B680893099B013309930C
:10BA8400099A059B9A42F5D3089B1B680493019B72
:10BA94000893002309930BE0089B1B680393089900
:10BAA4000498FEF73BFE039B0893099B013309931B
:10BAB4009DF81B30099A9A42EED300BF0BB05DF893
:10BAC40004FB00B585B00190019B0393039B0433F1
